:100000000C9434000C9451000C9451000C94510049
:100010000C9451000C9451000C9451000C9451001C
:100020000C9451000C9451000C9451000C9451000C
:100030000C9451000C9451000C9451000C945100FC
:100040000C9451000C9451000C9451000C945100EC
:100050000C9451000C9451000C9451000C945100DC
:100060000C9451000C94510011241FBECFEFD8E026
:10007000DEBFCDBF21E0ACE3B1E001C01D92A234F0
:10008000B207E1F711E0A0E0B1E0E0EEFEE002C06F
:1000900005900D92AC33B107D9F70E945D020C9424
:1000A0006E070C9400009091C00095FFFCCF8093E8
:1000B000C60090E080E008951092C50087E6809326
:1000C000C400E0ECF0E080818D7F808388E1809344
:1000D000C10086E08093C20080E091E090933F01F0
:1000E00080933E0108959C0121503109243031054F
:1000F00068F425B1019641E050E0BA0102C0660FF4
:10010000771F8A95E2F7CB01822B85B908959C0170
:10011000215031092530310568F445B12E5F3F4F3C
:1001200081E090E002C0880F991F2A95E2F7809540
:10013000842385B908959C0121503109243031056B
:1001400068F424B1019641E050E0BA0102C0660FA4
:10015000771F8A95E2F7CB01822B84B90895CF935C
:10016000DF93C1E0D0E004C0CE010E949B00219645
:10017000C530D105CCF3DF91CF9108954F925F92B6
:100180006F927F928F929F92AF92BF92CF92DF92A7
:10019000EF92FF92CF93DF93CDB7DEB766970FB69E
:1001A000F894DEBF0FBECDBF49015A019B01AC01DF
:1001B00060E074E284E799E40E94C4020E9436037E
:1001C0006B017C01A8EEB3E0A50194010E948904B3
:1001D0004B015C01412C512C320189818D8B8D8129
:1001E0008E8BD3C020E030E040E251E469897A8907
:1001F0008B899C890E941C040E94360306C080E9FA
:1002000091E00197F1F76150710961157105B9F736
:1002100023C081E090E035C120E030E04FE753E4B7
:1002200069817A818B819C810E941704181654F48D
:1002300069857A858B859C850E943603CB01019761
:10024000F1F70EC069817A818B819C810E9436030F
:100250006E8B02C081E08E8B8E898A95F1F78E8B32
:100260008BB188608BB920E030E040E85FE36981C2
:100270007A818B819C810E94BF0288230CF47BC011
:1002800020E03FEF4FE757E469857A858B859C85B1
:100290000E94170418160CF050C020E030E04AE726
:1002A00054E46D817E818F8198850E94C4026D83A4
:1002B0007E838F83988720E030E04AE755E40E94F0
:1002C0001C0469837A838B839C8320E030E040E8C0
:1002D0005FE30E94BF0288236CF120E03FEF4FE70D
:1002E00057E469817A818B819C810E9417041816DA
:1002F00054F069817A818B819C810E943603CB0105
:100300000197F1F73AC020E030E040E251E46D811E
:100310007E818F8198850E941C040E94360306C04E
:1003200080E991E00197F1F761507109611571055C
:10033000B9F723C081E090E0E3CF20E030E04FE761
:1003400053E469817A818B819C810E94170418167D
:1003500054F469857A858B859C850E943603CB0190
:100360000197F1F70EC069817A818B819C810E948F
:1003700036036D8B02C081E08D8B8D898A95F1F7F4
:100380008D8B4C0C5D1C6E1C7F1C481459046A0438
:100390007B0408F079C08BB1877F8BB9C701B601A8
:1003A00096958795779567950E9465036D837E8303
:1003B0008F8398872BEA3AEA4AEA50E40E941C04A9
:1003C00069837A838B839C8320E030E040E850E4AB
:1003D0006D817E818F8198850E941C0469877A8750
:1003E0008B879C8720E030E040E85FE369817A8179
:1003F0008B819C810E94BF0288230CF42BCF20E0CC
:100400003FEF4FE757E469857A858B859C850E948D
:10041000170418160CF000CF20E030E04AE754E44F
:100420006D817E818F8198850E94C402698B7A8B51
:100430008B8B9C8B20E030E04AE755E40E941C0443
:100440006D877E878F87988B20E030E040E85FE300
:100450000E94BF0288230CF4DCCE20E03FEF4FE780
:1004600057E46D857E858F8598890E94170418163C
:100470000CF4B8CE6D857E858F8598890E943603F1
:10048000CB010197F1F7E8CE66960FB6F894DEBF80
:100490000FBECDBFDF91CF91FF90EF90DF90CF9057
:1004A000BF90AF909F908F907F906F905F904F9094
:1004B00008958AB188608AB90895CF93DF93CDB744
:1004C000DEB7A0970FB6F894DEBF0FBECDBF0E9477
:1004D0005C0080E2EEE0F1E0DE01119601900D9209
:1004E0008A95E1F70E9459020E94AF0090E080E0F7
:1004F0000E94730010E000E00DC0E0E9F1E03197E8
:10050000F1F701970097C9F790E080E00E9473002F
:100510000F5F1F4F083011056CF7F801EE0FFF1F3A
:10052000EE0FFF1F81E090E08C0F9D1FE80FF91F79
:10053000F080E180D280C3806F2D7E2D8D2D9C2D8B
:100540000E9465032AEF30E040E050E00E94BE00C8
:10055000CF92DF92EF92FF928EE291E09F938F9382
:100560000E94A30490E080E00E9487000F900F900B
:100570000F900F900F900F9084EC99E0C3CF0E94E2
:10058000A20308F481E008950E94D8020C94DD03D0
:100590000E94D60358F00E94CF0340F029F45F3F39
:1005A00029F00C94C60351110C9411040C94CC0343
:1005B0000E94EE0368F39923B1F3552391F3951B41
:1005C000550BBB27AA2762177307840738F09F5F74
:1005D0005F4F220F331F441FAA1FA9F335D00E2EE1
:1005E0003AF0E0E832D091505040E695001CCAF74E
:1005F0002BD0FE2F29D0660F771F881FBB1F261711
:1006000037074807AB07B0E809F0BB0B802DBF01E7
:10061000FF2793585F4F3AF09E3F510578F00C94B6
:10062000C6030C9411045F3FE4F3983ED4F386951F
:1006300077956795B795F7959F5FC9F7880F911DD7
:100640009695879597F90895E1E0660F771F881FC3
:10065000BB1F621773078407BA0720F0621B730B76
:10066000840BBA0BEE1F88F7E09508950E94F603FD
:1006700088F09F5798F0B92F9927B751B0F0E1F063
:10068000660F771F881F991F1AF0BA95C9F714C013
:10069000B13091F00E941004B1E008950C94100460
:1006A000672F782F8827B85F39F0B93FCCF386954C
:1006B00077956795B395D9F73EF4909580957095A9
:1006C00061957F4F8F4F9F4F0895E89409C097FB26
:1006D0003EF490958095709561957F4F8F4F9F4F19
:1006E0009923A9F0F92F96E9BB279395F69587955D
:1006F00077956795B795F111F8CFFAF4BB0F11F420
:1007000060FF1BC06F5F7F4F8F4F9F4F16C08823C6
:1007100011F096E911C0772321F09EE8872F762FFC
:1007200005C0662371F096E8862F70E060E02AF03D
:100730009A95660F771F881FDAF7880F9695879529
:1007400097F90895990F0008550FAA0BE0E8FEEFFE
:1007500016161706E807F907C0F012161306E40785
:10076000F50798F0621B730B840B950B39F40A267E
:1007700061F0232B242B252B21F408950A2609F45C
:10078000A140A6958FEF811D811D089597F99F6760
:1007900080E870E060E008959FEF80EC0895002409
:1007A0000A941616170618060906089500240A94D6
:1007B00012161306140605060895092E0394000C5C
:1007C00011F4882352F0BB0F40F4BF2B11F460FFEB
:1007D00004C06F5F7F4F8F4F9F4F089557FD905814
:1007E000440F551F59F05F3F71F04795880F97FBF5
:1007F000991F61F09F3F79F08795089512161306AF
:100800001406551FF2CF4695F1DF08C016161706DD
:100810001806991FF1CF8695710561050894089512
:10082000E894BB2766277727CB0197F908950E94A4
:10083000A20308F48FEF08950E942F040C94DD03A7
:100840000E94CF0338F00E94D60320F0952311F0C8
:100850000C94C6030C94CC0311240C9411040E9434
:10086000EE0370F3959FC1F3950F50E0551F629F03
:10087000F001729FBB27F00DB11D639FAA27F00DF9
:10088000B11DAA1F649F6627B00DA11D661F829F20
:100890002227B00DA11D621F739FB00DA11D621F05
:1008A000839FA00D611D221F749F3327A00D611D22
:1008B000231F849F600D211D822F762F6A2F112404
:1008C0009F5750409AF0F1F088234AF0EE0FFF1F37
:1008D000BB1F661F771F881F91505040A9F79E3F8E
:1008E000510580F00C94C6030C9411045F3FE4F3AF
:1008F000983ED4F3869577956795B795F795E795E4
:100900009F5FC1F7FE2B880F911D9695879597F9EC
:1009100008950E949404A59F900DB49F900DA49FEC
:10092000800D911D11240895A29FB001B39FC001B5
:10093000A39F700D811D1124911DB29F700D811D0B
:100940001124911D0895B0E0A0E0E9EAF4E00C94D0
:100950004707AE014B5F5F4FFA0161917191AF01A3
:1009600080913E0190913F010E94B904E2E00C9415
:100970006307ABE0B0E0EFEBF4E00C9437077C01E9
:100980003B018A01FC0117821682838181FFC8C165
:10099000CE0101965C01F7019381F30193FD8591EE
:1009A00093FF81913F01882309F453C1853239F4C3
:1009B00093FD859193FF81913F01853229F4B70121
:1009C00090E00E94A906E7CF912C212C312CFFE169
:1009D000F31538F08B3211F190F4803209F1833243
:1009E00029F137FC3CC020ED280F2A3050F536FEA7
:1009F00020C08AE0989E200D1124922E06C08D32D0
:100A000091F0803371F7689430F8F30193FD85918C
:100A100093FF81913F018111DACF21C0689431F8B1
:100A2000689432F8F2CF689433F8EFCF689434F8D2
:100A3000ECCFEAE02E9E200D1124222E689435F88A
:100A4000E4CF8E3229F436FC04C1689436F8DDCF49
:100A50008C3619F4689437F8D8CF8836B1F2982FCD
:100A60009F7D95549330E0F08336A1F18337C1F137
:100A7000833509F063C02801F2E04F0E511CF801E4
:100A8000C080D180692D70E036FC02C06FEF7FEF2F
:100A9000C6010E9493064C01689437F882010AC08F
:100AA0000C5F1F4FFFE3F98388248394912C650129
:100AB000E89437F833FE2DC0522C8114910471F55F
:100AC000552009F468CFB70180E290E00E94A906A2
:100AD0005A94F6CFF801808189830E5F1F4FE4CFCF
:100AE0002801F2E04F0E511CF801C080D180692D21
:100AF00070E036FC02C06FEF7FEFC6010E949E06D9
:100B00004C018201D5CFB70180E290E00E94A90696
:100B10002A942814190409F0B0F7CECFF60137FC57
:100B2000859137FE81916F01B70190E00E94A9067F
:100B300051105A94F1E08F1A9108BFCF843619F002
:100B4000893609F077C0F80137FE6BC0608171818A
:100B5000828193810C5F1F4FF32DFF763F2E97FF0D
:100B600009C090958095709561957F4F8F4F9F4FED
:100B7000689437F82AE030E0A5010E94D906C82E13
:100B8000CA188C2C432C36FE0CC0E89440F8C914CB
:100B900040F434FE05C032FC03C0F32DFE7E4F2E20
:100BA000892C44FE95C0FE01EC0DF11D808180333F
:100BB00009F087C0242D297E422E842D8870582E5E
:100BC00043FC95C040FE8FC09C2C821418F42C0C62
:100BD000922C981844FE91C0B70180E390E00E94E7
:100BE000A90642FE09C088E790E041FE02C088E500
:100BF00090E0B7010E94A906C91408F48AC0CA94FB
:100C0000D12C9FEFC91AD90ACA0CDB1CF6018291BC
:100C10006F01B70190E00E94A906AC14BD04B1F7C2
:100C20004FCF60817181072E000C880B990B0E5FEE
:100C30001F4F92CFD32CE894D4F82AE030E08537C8
:100C400039F1232D297FD22E8F3601F148F48835D2
:100C5000A9F0F701868197812B96E2E10C94530766
:100C6000803749F08837A9F7D4FE02C06894D2F8DB
:100C700020E130E00DC06894D4F8F6CF34FE03C014
:100C8000822F8660D82E20E132E002C028E030E0DA
:100C9000F801D7FE0FC060817181828193810C5F62
:100CA0001F4FA5010E94D906C82ECA183D2CE894F2
:100CB00037F867CF6081718190E080E00E5F1F4F51
:100CC000F0CF42FC02C0839478CF8394839475CF95
:100CD000842D867809F471CFF6CFB70180E290E0D9
:100CE0000E94A90683948214C0F3512C73CF522C16
:100CF0005818821408F46ECFF8CF842D867809F442
:100D00007BCF8BE241FE80E247FC8DE2B70190E0B1
:100D100071CFB70180E390E00E94A9069A946CCF4E
:100D20008FEF9FEF99CFFC0105906150704001104B
:100D3000D8F7809590958E0F9F1F0895FC01615004
:100D4000704001900110D8F7809590958E0F9F1FED
:100D500008950F931F93CF93DF93182F092FEB0163
:100D60008B8181FD09C01FEF0FEF812F902FDF9145
:100D7000CF911F910F91089582FF14C02E813F8162
:100D80008C819D81281739073CF4E881F981CF01D6
:100D900001969983888310838E819F8101969F831A
:100DA0008E83E3CFE885F985812F0995892BA1F3FF
:100DB000DACFFA01AA27283051F1203181F1E894E5
:100DC0006F936E7F6E5F7F4F8F4F9F4FAF4FB1E03E
:100DD0003ED0B4E03CD0670F781F891F9A1FA11D39
:100DE000680F791F8A1F911DA11D6A0F711D811D3A
:100DF000911DA11D20D009F468943F912AE0269FFF
:100E000011243019305D3193DEF6CF010895462F5D
:100E10004770405D4193B3E00FD0C9F7F6CF462F3E
:100E20004F70405D4A3318F0495D31FD40524193A7
:100E300002D0A9F7EACFB4E0A69597958795779564
:100E40006795BA95C9F700976105710508959B01EB
:100E5000AC010A2E06945795479537952795BA9574
:100E6000C9F7620F731F841F951FA01D08952F924D
:100E70003F924F925F926F927F928F929F92AF922A
:100E8000BF92CF92DF92EF92FF920F931F93CF9377
:100E9000DF93CDB7DEB7CA1BDB0B0FB6F894DEBF0E
:100EA0000FBECDBF09942A88398848885F846E8434
:100EB0007D848C849B84AA84B984C884DF80EE807E
:100EC000FD800C811B81AA81B981CE0FD11D0FB687
:100ED000F894DEBF0FBECDBFED010895F894FFCFAB
:100EE00000000003000000005300000000000B029F
:100EF00000004B02000093020000BA0200000F0342
:100F0000000070030000DB030000160400005065C1
:0C0F100072696F643A20256C750A0000BD
:00000001FF
