:100000000C9434000C9449000C9449000C94490061
:100010000C9449000C9449000C9449000C9449003C
:100020000C9449000C9449000C9449000C9449002C
:100030000C9449000C9449000C9449000C9449001C
:100040000C9449000C9449000C9449000C9449000C
:100050000C9449000C9449000C9449000C944900FC
:100060000C9449000C94490011241FBECFEFD8E036
:10007000DEBFCDBF11E0A0E0B1E0E8E0F5E002C0F6
:1000800005900D92AE33B107D9F70E9423020C946C
:1000900082020C94000090E018C047E050E0491B39
:1000A0005109282F30E002C0359527954A95E2F78F
:1000B00021702130C1F025B12E7F25B92BB12068E8
:1000C0002BB92BB12F772BB99F5F983080F461113A
:1000D000E4CF282F30E0092E02C0359527950A94E9
:1000E000E2F72170E6CF25B1216025B9E7CF089569
:1000F000CF93C82F8BB18F7E8BB9E62FF0E0E05005
:10010000FF4F61E080810E944B00EC2FF0E0E65F42
:10011000FE4F61E080810E944B008BB180618BB902
:10012000CF9108958AB180618AB98AB180688AB90D
:1001300084B1816084B90895AF92BF92DF92EF924B
:10014000FF920F931F93CF93DF93803127E29207A3
:1001500008F051C05B01EC01F12CE12C43C0CE0151
:1001600068EE73E00E94460280E00E9478008FE112
:100170009EE40197F1F700C00000CE0164E670E054
:100180000E944602CB010AE010E0B8010E9446023C
:10019000682F81E00E9478008FE19EE40197F1F7DB
:1001A00000C00000CE01B8010E944602D82ECB014B
:1001B000B8010E944602682F82E00E9478008FE119
:1001C0009EE40197F1F700C000006D2D83E00E94CE
:1001D00078008FE19EE40197F1F700C000009FEFE7
:1001E000E91AF90AC50164E170E00E944602E616C8
:1001F000F7060CF4B4CFDF91CF911F910F91FF90D0
:10020000EF90DF90BF90AF900895CF93DF93C82F0A
:10021000D62F8BB18F7E8BB9862F660F990B0E94DC
:100220007802892B09F0D052E0EEED0FEB3508F0A3
:1002300062C00E2E000CFF0BE05EFE4F0C945A02C3
:10024000C6017B017B017B017B017B017B017B0183
:100250007B017B017B017B017B017B017B017B01BE
:100260007B017B017B017B017B017B017B017B01AE
:100270007B017B017B017B017B017B017B017B019E
:100280007B017B01C9017E018101840187018A0113
:100290008D0190019301960199019C019F01A2019A
:1002A000A501A801AB01AE01B101B401B701BA01CA
:1002B000BD01C001C3017B017B017B017B017B018F
:1002C0007B017B01C9017E018101840187018A01D3
:1002D0008D0190019301960199019C019F01A2015A
:1002E000A501A801AB01AE01B101B401B701BA018A
:1002F000BD01C001C301F0E0E0E04DC0E2E0F0E08C
:100300004AC0E3E0F0E047C0E4E0F0E044C0E5E0EC
:10031000F0E041C0E6E0F0E03EC0E7E0F0E03BC0E6
:10032000E8E0F0E038C0E9E0F0E035C0EAE0F0E015
:1003300032C0EBE0F0E02FC0ECE0F0E02CC0EDE0EC
:10034000F0E029C0EEE0F0E026C0EFE0F0E023C0EE
:10035000E0E1F0E020C0E1E1F0E01DC0E2E1F0E02A
:100360001AC0E3E1F0E017C0E4E1F0E014C0E5E119
:10037000F0E011C0E6E1F0E00EC0E7E1F0E00BC014
:10038000E8E1F0E008C0E9E1F0E005C0EAE1F0E012
:1003900002C0E1E0F0E0E25FFE4F61E080810E9498
:1003A0004B00EC2FF0E0E65FFE4F61E080810E94A1
:1003B0004B008BB180618BB9DF91CF910895EF92A3
:1003C000FF920F931F93CF93DF93EC017B0110E01B
:1003D00000E02AC0688180E00E9405018FE19EE470
:1003E0000197F1F700C00000698181E00E940501DA
:1003F0008FE19EE40197F1F700C000006A8182E07E
:100400000E9405018FE19EE40197F1F700C0000012
:100410006B8183E00E9405018FE19EE40197F1F773
:1004200000C000000F5F1F4FC70164E170E00E9431
:1004300046020617170774F2DF91CF911F910F91B3
:10044000FF90EF9008950E94920068EE73E089E2B9
:1004500091E00E94DF0168EE73E08EE291E00E947D
:10046000DF0168EE73E083E391E00E94DF0168EE54
:1004700073E088E391E00E94DF0168EE73E082EDB3
:1004800094E00E949C0090E080E0089597FB072E86
:1004900016F4009407D077FD09D00E94600207FC93
:1004A00005D03EF4909581959F4F08957095619584
:1004B0007F4F0895EE0FFF1F0590F491E02D0994F2
:1004C000AA1BBB1B51E107C0AA1FBB1FA617B7077A
:1004D00010F0A61BB70B881F991F5A95A9F7809596
:1004E0009095BC01CD01089585FD0C947F0280623A
:1004F00091110C947F0281568A51D8F7089599275B
:0805000088270895F894FFCF4D
:10050800C0F9A4B0999282F88090F1F2F4F8888347
:10051800C6A1868EC289CFE18AC7EAC8C08C4ACCF8
:100528009287C1C1D58991A4FF64616E6700207963
:0E0538006F7500206172650064756D620000D1
:00000001FF
