:100000000C9434000C9451000C9451000C94510049
:100010000C9451000C9451000C9451000C9451001C
:100020000C9451000C9451000C9451000C9451000C
:100030000C9451000C9451000C9451000C945100FC
:100040000C9451000C9451000C9451000C945100EC
:100050000C9451000C9451000C9451000C945100DC
:100060000C9451000C94510011241FBECFEFD8E026
:10007000DEBFCDBF21E0ACE1B1E001C01D92A232F4
:10008000B207E1F711E0A0E0B1E0ECEEF2E002C06F
:1000900005900D92AC31B107D9F70E942D010C9457
:1000A00074010C9400009091C00095FFFCCF8093E8
:1000B000C60090E080E008951092C50087E6809326
:1000C000C400E0ECF0E080818D7F808388E1809344
:1000D000C10086E08093C20080E091E090931F0110
:1000E00080931E01089590E018C047E050E0491B3E
:1000F0005109282F30E002C0359527954A95E2F73F
:1001000021702130C1F025B12E7F25B92BB1206897
:100110002BB92BB12F772BB99F5F983080F46111E9
:10012000E4CF282F30E0092E02C0359527950A9498
:10013000E2F72170E6CF25B1216025B9E7CF089518
:10014000CF93C82F8BB18F7E8BB9E62FF0E0EE5E98
:10015000FE4F61E080810E947300EC2FF0E0E25FCF
:10016000FE4F61E080810E9473008BB180618BB98A
:10017000CF9108958AB180618AB98AB180688AB9BD
:1001800084B1816084B90895AF92BF92DF92EF92FB
:10019000FF920F931F93CF93DF93803127E2920753
:1001A00008F051C05B01EC01F12CE12C43C0CE0101
:1001B00068EE73E00E943E0180E00E94A0008FE1A3
:1001C0009EE40197F1F700C00000CE0164E670E004
:1001D0000E943E01CB010AE010E0B8010E943E01FE
:1001E000682F81E00E94A0008FE19EE40197F1F763
:1001F00000C00000CE01B8010E943E01D82ECB0104
:10020000B8010E943E01682F82E00E94A0008FE1A9
:100210009EE40197F1F700C000006D2D83E00E947D
:10022000A0008FE19EE40197F1F700C000009FEF6E
:10023000E91AF90AC50164E170E00E943E01E61680
:10024000F7060CF4B4CFDF91CF911F910F91FF907F
:10025000EF90DF90BF90AF9008950E945C000E94E5
:10026000BA0084E790E00E946A01892BD1F368EE1E
:1002700073E081ED97E00E94C400F3CF97FB072E57
:1002800016F4009407D077FD09D00E94520107FCB4
:1002900005D03EF4909581959F4F08957095619596
:1002A0007F4F0895AA1BBB1B51E107C0AA1FBB1FAC
:1002B000A617B70710F0A61BB70B881F991F5A95F2
:1002C000A9F780959095BC01CD01089585FD0C940A
:1002D0007101806291110C94710181568A51D8F795
:0C02E0000895992788270895F894FFCF0F
:1002EC000000000300000000530000000000F1F2C9
:0C02FC00F4F8C0F9A4B0999282F8809048
:00000001FF
