:100000000C9434000C9451000C9451000C94510049
:100010000C9451000C9451000C9451000C9451001C
:100020000C9451000C9451000C9451000C9451000C
:100030000C9451000C9451000C9451000C945100FC
:100040000C9451000C9451000C9451000C945100EC
:100050000C9451000C9451000C9451000C945100DC
:100060000C9451000C94510011241FBECFEFD8E026
:10007000DEBFCDBF11E0A0E0B1E0ECE6F8E002C0E9
:1000800005900D92A430B107D9F721E0A4E0B1E0CA
:1000900001C01D92A830B207E1F70E94E9000C945C
:1000A00034040C9400009C012150310924303105A6
:1000B00068F425B1019641E050E0BA0102C0660F34
:1000C000771F8A95E2F7CB01822785B908959C01B5
:1000D000215031092430310568F425B1019641E001
:1000E00050E0BA0102C0660F771F8A95E2F7CB0194
:1000F000822B85B90895CF93DF93C1E0D0E004C08F
:10010000CE010E9467002196C530D105CCF3DF9166
:10011000CF9108959C01215031092530310568F4B3
:1001200045B12E5F3F4F81E090E002C0880F991FDC
:100130002A95E2F78095842385B908959C01215082
:1001400031092430310568F424B1019641E050E0D2
:10015000BA0102C0660F771F8A95E2F7CB01822BA6
:1001600084B90895CF93DF93C1E0D0E004C0CE01FD
:100170000E949E002196C530D105CCF30E947B00E1
:10018000DF91CF910895EF92FF920F931F93CF933A
:10019000DF938C017B01D0E0C0E00BC0E0E9F1E02F
:1001A0003197F1F701970097C9F7C8010E946700DE
:1001B0002196EC16FD0634F0C8010E948A0088E8FA
:1001C00093E1F1CFDF91CF911F910F91FF90EF90CD
:1001D00008958F929F92AF92BF92CF92DF92EF924B
:1001E000FF920F931F93CF93DF93CDB7DEB768973E
:1001F0000FB6F894DEBF0FBECDBF0E94B2000E94C2
:100200007B0081E090E00E948A0084EC99E005C0C8
:10021000E0E9F1E03197F1F701970097C9F782E043
:1002200090E00E948A0084EC99E005C0E0E9F1E0EA
:100230003197F1F701970097C9F783E090E00E94AA
:100240008A0084EC99E005C0E0E9F1E03197F1F72C
:1002500001970097C9F784E090E00E948A0084EC3F
:1002600099E005C0E0E9F1E03197F1F701970097D7
:10027000C9F70E947B0010E000E00DC0E0E9F1E06A
:100280003197F1F701970097C9F790E080E00E945D
:1002900067000F5F1F4F0B3011053CF490E080E0CA
:1002A0000E948A0088E893E1EECF6AE070E083E084
:1002B00090E00E94C3000E947B000AE010E01FC093
:1002C00020E030E040E251E4C501B4010E949F0308
:1002D0000E94E10206C080E991E00197F1F76150C8
:1002E000710961157105B9F704C081E090E00197CB
:1002F000F1F782E090E00E9467000E5C1F4F083E1D
:1003000023E0120771F182E090E00E948A00B801B8
:10031000012E000C880B990B0E9412034B015C010B
:1003200020E030E04AE755E40E949F036B017C0126
:1003300020E030E040E85FE30E94DC028823ACF27A
:1003400020E03FEF4FE757E4C701B6010E949A0350
:1003500018160CF4B5CFC701B6010E94E102CB011B
:10036000C6CFCE0101960E940A02CB010E946E0206
:1003700010E000E00DC0F801EE0FFF1F21E030E0BB
:100380002C0F3D1FE20FF31F958384830F5F1F4FD8
:100390000B3011055CF40E946902837090789923F8
:1003A00054F701978C6F9F6F0196E5CF10E000E046
:1003B0000FC0F801EE0FFF1F81E090E08C0F9D1F32
:1003C000E80FF91F848195810E9453000F5F1F4F32
:1003D0000A30110574F310E000E004C00E946902C5
:1003E0000F5F1F4F0B301105CCF390E080E0689653
:1003F0000FB6F894DEBF0FBECDBFDF91CF911F9136
:100400000F91FF90EF90DF90CF90BF90AF909F90B3
:100410008F900895FC010FB6F894609104017091DB
:10042000050180910601909107010FBE309721F0E0
:10043000608371838283938308958F929F92AF929A
:10044000BF92CF92DF92EF92FF92CF93DF93EC01B6
:10045000688179818A819B8161157105810591058A
:1004600021F464E279ED8BE597E02DE133EF41E093
:1004700050E00E94790249015A019B01AC01A7EAB0
:10048000B1E40E9498026B017C01ACEEB4EFA501CF
:1004900094010E94A602DC01CB018C0D9D1DAE1DB6
:1004A000BF1DB7FF03C00197A109B0488883998396
:1004B000AA83BB839F77DF91CF91FF90EF90DF906E
:1004C000CF90BF90AF909F908F9008950E941D0293
:1004D000089580E091E00E941D020895B0E0A0E040
:1004E0008093000190930101A0930201B093030156
:1004F0000895052E97FB1EF400940E94900257FD6C
:1005000007D00E94AB0207FC03D04EF40C9490027B
:1005100050954095309521953F4F4F4F5F4F08952F
:1005200090958095709561957F4F8F4F9F4F08955F
:100530000E94CD02A59F900DB49F900DA49F800DA9
:10054000911D11240895B7FF0C9498020E949802FF
:10055000821B930B0895A1E21A2EAA1BBB1BFD015F
:100560000DC0AA1FBB1FEE1FFF1FA217B307E40792
:10057000F50720F0A21BB30BE40BF50B661F771FEA
:10058000881F991F1A9469F76095709580959095CA
:100590009B01AC01BD01CF010895A29FB001B39FA3
:1005A000C001A39F700D811D1124911DB29F700D7C
:1005B000811D1124911D08950E944D0308F481E0CE
:1005C00008950E94790388F09F5798F0B92F9927D2
:1005D000B751B0F0E1F0660F771F881F991F1AF02E
:1005E000BA95C9F714C0B13091F00E949303B1E0FD
:1005F00008950C949303672F782F8827B85F39F0FC
:10060000B93FCCF3869577956795B395D9F73EF4C6
:1006100090958095709561957F4F8F4F9F4F08956E
:10062000E89409C097FB3EF490958095709561958C
:100630007F4F8F4F9F4F9923A9F0F92F96E9BB2742
:100640009395F695879577956795B795F111F8CFBE
:10065000FAF4BB0F11F460FF1BC06F5F7F4F8F4F29
:100660009F4F16C0882311F096E911C0772321F01F
:100670009EE8872F762F05C0662371F096E8862FB7
:1006800070E060E02AF09A95660F771F881FDAF70E
:10069000880F9695879597F90895990F0008550F3B
:1006A000AA0BE0E8FEEF16161706E807F907C0F0F8
:1006B00012161306E407F50798F0621B730B840B00
:1006C000950B39F40A2661F0232B242B252B21F4DA
:1006D00008950A2609F4A140A6958FEF811D811D7A
:1006E000089557FD9058440F551F59F05F3F71F022
:1006F0004795880F97FB991F61F09F3F79F0879589
:100700000895121613061406551FF2CF4695F1DF11
:1007100008C0161617061806991FF1CF86957105A1
:10072000610508940895E894BB2766277727CB01D5
:1007300097F908950E944D0308F48FEF08950E94E1
:10074000B2030C9423040E94150438F00E941C0488
:1007500020F0952311F00C940C040C941204112435
:100760000C9494030E94710370F3959FC1F3950F4D
:1007700050E0551F629FF001729FBB27F00DB11D25
:10078000639FAA27F00DB11DAA1F649F6627B00DB5
:10079000A11D661F829F2227B00DA11D621F739F9E
:1007A000B00DA11D621F839FA00D611D221F749FAC
:1007B0003327A00D611D231F849F600D211D822FF3
:1007C000762F6A2F11249F5750409AF0F1F088231A
:1007D0004AF0EE0FFF1FBB1F661F771F881F915047
:1007E0005040A9F79E3F510580F00C940C040C94E6
:1007F00094035F3FE4F3983ED4F38695779567952D
:10080000B795F795E7959F5FC1F7FE2B880F911D70
:100810009695879597F9089597F99F6780E870E016
:1008200060E008959FEF80EC089500240A94161666
:10083000170618060906089500240A9412161306CE
:10084000140605060895092E0394000C11F488235C
:1008500052F0BB0F40F4BF2B11F460FF04C06F5F78
:0C0860007F4F8F4F9F4F0895F894FFCFFB
:04086C000100000087
:00000001FF
