:100000000C9434000C9451000C9451000C94510049
:100010000C9451000C9451000C9451000C94280441
:100020000C9451000C9451000C9451000C9451000C
:100030000C9451000C9451000C9451000C945100FC
:100040000C9451000C9451000C9451000C945100EC
:100050000C9451000C9451000C9451000C945100DC
:100060000C9451000C94510011241FBECFEFD8E026
:10007000DEBFCDBF21E0ACE2B1E001C01D92A833EC
:10008000B207E1F711E0A0E0B1E0E2E2FFE002C078
:1000900005900D92AC32B107D9F70E94D4030C94AD
:1000A0008F070C9400008130910569F08230910532
:1000B000B1F0892B09F00895EEE6F0E080818260CE
:1000C000808367BD0895EFE6F0E0808182608083E1
:1000D000862F972F90938900809388000895E0E7FA
:1000E000F0E08081826080836093B300E4CF813050
:1000F000910551F08230910569F0892B09F008953E
:1001000085B5887F85BD0895E1E8F0E08081887F2E
:1001100080830895E1EBF0E08081887F8083EFCFDA
:100120008034910559F16CF481309105D9F0883013
:100130009105F1F0892B99F582E090E00E9477001B
:100140000895811521E09207F9F0811524E09207C6
:1001500009F18038910519F5E1EBF0E080818560C7
:1001600080830895E1EBF0E08081816080830895D1
:10017000E1EBF0E08081826080830895E1EBF0E0C4
:100180008081846080830895E1EBF0E08081866067
:1001900080830895E1EBF0E080818760808308959B
:1001A0008034910559F16CF481309105D9F0883093
:1001B0009105F1F0892B99F581E090E00E9477009C
:1001C0000895811521E09207F9F0811524E0920746
:1001D00009F18038910519F5E1E8F0E0808185604A
:1001E00080830895E1E8F0E0808181608083089554
:1001F000E1E8F0E08081826080830895E1E8F0E04A
:100200008081846080830895E1E8F0E080818660E9
:1002100080830895E1E8F0E080818760808308951D
:100220008034910529F16CF481309105C9F0883052
:100230009105D1F0892B39F590E080E00E9477009C
:100240000895811521E09207B9F0811524E0920705
:10025000B9F080389105B9F485B5856085BD0895FC
:1002600085B5816085BD089585B5826085BD089599
:1002700085B5846085BD089585B5866085BD089582
:1002800085B5876085BD08958830910508F04BC01D
:10029000835B9E4FFC010C94AA045501600166012A
:1002A0006B01700175017F018901E0EBF0E0808155
:1002B0008C7F8083E1EBF0E08081877F80830895ED
:1002C000E0EBF0E08081816080830895E0EBF0E076
:1002D000808182608083E0EBF0E0808183608083B6
:1002E000E1EBF0E0808188608083E0EBF0E08081EA
:1002F00081608083E1EBF0E0808188608083E0EBC7
:10030000F0E0808182608083E1EBF0E080818860B2
:100310008083E0EBF0E0808183608083E1EBF0E0BC
:1003200080818860808308958830910508F04BC0F3
:1003300083569E4FFC010C94AA04A501B001B6019E
:10034000BB01C001C501CF01D901E0E8F0E0808127
:100350008C7F8083E1E8F0E08081877F808308954F
:10036000E0E8F0E08081816080830895E0E8F0E0DB
:10037000808182608083E0E8F0E080818360808318
:10038000E1E8F0E0808188608083E0E8F0E080814F
:1003900081608083E1E8F0E0808188608083E0E82C
:1003A000F0E0808182608083E1E8F0E08081886015
:1003B0008083E0E8F0E0808183608083E1E8F0E022
:1003C00080818860808308958830910598F58451F4
:1003D0009E4FFC010C94AA04F401FB01FF010202F0
:1003E000050208020E02140284B58C7F84BD85B517
:1003F000877F85BD089584B5816084BD089584B5E7
:10040000826084BD84B5836084BD85B5886085BD08
:1004100084B5816084BD85B5886085BD84B5826002
:1004200084BD85B5886085BD84B5836084BD85B590
:10043000886085BD0895CF93DF93EA0181309105EF
:1004400081F082309105A1F0892B21F07894DF9121
:10045000CF910895CB010E94E401CE010E941001CA
:10046000F5CFCB010E949401CE010E94D000EECFC7
:10047000CB010E944401CE010E949000E7CF9091F1
:10048000C00095FFFCCF8093C60090E080E0089507
:100490001092C50087E68093C400E0ECF0E0808114
:1004A0008D7F808388E18093C10086E08093C200C5
:1004B00082E091E0909335018093340108959C018E
:1004C000215031092430310568F425B1019641E00D
:1004D00050E0BA0102C0660F771F8A95E2F7CB01A0
:1004E000822B85B90895CF93DF93C1E0D0E004C09B
:1004F000CE010E945F022196C530D105CCF3DF9179
:10050000CF9108959C01215031092430310568F4C0
:1005100024B1019641E050E0BA0102C0660F771F96
:100520008A95E2F7CB01822B84B90895CF93DF93AC
:10053000C1E0D0E004C0CE010E9482022196C53005
:10054000D105CCF30E947302DF91CF91089590E022
:1005500018C047E050E0491B5109282F30E002C085
:10056000359527954A95E2F721702130C1F025B1E4
:100570002E7F25B92BB120682BB92BB12F772BB942
:100580009F5F983080F46111E4CF282F30E0092E6E
:1005900002C0359527950A94E2F72170E6CF25B180
:1005A000216025B9E7CF0895CF93C82F8BB18F7EF7
:1005B0008BB9E62FF0E0EC5EFE4F61E080810E9497
:1005C000A702EC2FF0E0E05FFE4F61E080810E9427
:1005D000A7028BB180618BB9CF9108958AB18061F8
:1005E0008AB98AB180688AB984B1816084B9089572
:1005F0009C012250310923303105E0F447B121E05C
:1006000030E0B90102C0660F771F8A95E2F7CB018F
:10061000962F9095942397B998B1982B98B9E8E6BE
:10062000F0E0908192609083ECE6F0E09081892B7D
:10063000808378940895CF93DF93C1E0D0E004C025
:10064000CE010E94F8022196C330D105CCF3DF9190
:10065000CF9108958091000190910101CD976CF0A8
:1006600010920101109200018091300190913101AE
:100670000196909331018093300108959C0121509F
:10068000310923303105F8F426B130E0082E02C0DC
:10069000359527950A94E2F7A9014170552720FD69
:1006A00015C0EFE9FFE03197F1F700C0000026B177
:1006B00030E002C0359527958A95E2F720FD08C005
:1006C00041E050E005C050E040E002C050E040E0B2
:1006D000CA010895EF92FF920F931F93CF93DF9378
:1006E0007C0110E000E050C0809130019091310118
:1006F000CAE0D0E0BE010E947404CB01BE010E949A
:100700007404682F80E00E94D4028FE19EE4019778
:10071000F1F700C000008091300190913101BE01DD
:100720000E947404682F81E00E94D4028FE19EE44D
:100730000197F1F700C00000809100019091010144
:10074000BE010E947404CB01BE010E947404682F94
:1007500082E00E94D4028FE19EE40197F1F700C08D
:1007600000008091000190910101BE010E9474047B
:10077000682F83E00E94D4028FE19EE40197F1F795
:1007800000C000000F5F1F4FC70164E170E00E94CE
:100790007404061717070CF4A7CFDF91CF911F91B0
:1007A0000F91FF90EF9008950E9448020E94EE0280
:1007B0000E9496020E941B0321C040E051E062E0CB
:1007C00070E082E090E00E941B0269EF70E082E03E
:1007D00090E00E94530018C082E090E00E947700F1
:1007E00019C0109201011092000110923101109273
:1007F000300116C084E690E00E946A0381E090E038
:100800000E943E030197C9F282E090E00E943E03FD
:10081000019711F383E090E00E943E03019709F3F2
:1008200080910001909101018C179D0719F39F930E
:100830008F938EE191E09F938F930E94C404C091A7
:100840000001D09101010F900F900F900F90D2CF27
:100850001F920F920FB60F9211242F933F934F9335
:100860005F936F937F938F939F93AF93BF93EF9318
:10087000FF9360912C0170912D0180912E01909138
:100880002F016F5F7F4F8F4F9F4F60932C017093AD
:100890002D0180932E0190932F012AEF30E040E04C
:1008A00050E00E948804672B682B692B89F0FF9128
:1008B000EF91BF91AF919F918F917F916F915F91D8
:1008C0004F913F912F910F900FBE0F901F90189551
:1008D0008091000190910101019790930101809313
:1008E00000010E942A03E3CF97FB072E16F4009421
:1008F00007D077FD09D00E94B00407FC05D03EF474
:10090000909581959F4F0895709561957F4F0895BB
:10091000A1E21A2EAA1BBB1BFD010DC0AA1FBB1F03
:10092000EE1FFF1FA217B307E407F50720F0A21B75
:10093000B30BE40BF50B661F771F881F991F1A94E2
:1009400069F760957095809590959B01AC01BD010C
:10095000CF010895EE0FFF1F0590F491E02D09944B
:10096000AA1BBB1B51E107C0AA1FBB1FA617B707D5
:1009700010F0A61BB70B881F991F5A95A9F78095F1
:100980009095BC01CD010895B0E0A0E0EAECF4E060
:100990000C946807AE014B5F5F4FFA016191719152
:1009A000AF0180913401909135010E94DA04E2E0B8
:1009B0000C948407ABE0B0E0E0EEF4E00C94580750
:1009C0007C013B018A01FC0117821682838181FF31
:1009D000C8C1CE0101965C01F7019381F30193FD3B
:1009E000859193FF81913F01882309F453C185329A
:1009F00039F493FD859193FF81913F01853229F46C
:100A0000B70190E00E94CA06E7CF912C212C312C2F
:100A1000FFE1F31538F08B3211F190F4803209F1D7
:100A2000833229F137FC3CC020ED280F2A3050F5E5
:100A300036FE20C08AE0989E200D1124922E06C01A
:100A40008D3291F0803371F7689430F8F30193FDA3
:100A5000859193FF81913F018111DACF21C0689484
:100A600031F8689432F8F2CF689433F8EFCF689495
:100A700034F8ECCFEAE02E9E200D1124222E68944B
:100A800035F8E4CF8E3229F436FC04C1689436F888
:100A9000DDCF8C3619F4689437F8D8CF8836B1F2A8
:100AA000982F9F7D95549330E0F08336A1F18337E2
:100AB000C1F1833509F063C02801F2E04F0E511CEB
:100AC000F801C080D180692D70E036FC02C06FEF64
:100AD0007FEFC6010E94B4064C01689437F882018A
:100AE0000AC00C5F1F4FFFE3F98388248394912C85
:100AF0006501E89437F833FE2DC0522C811491041F
:100B000071F5552009F468CFB70180E290E00E94AA
:100B1000CA065A94F6CFF801808189830E5F1F4F71
:100B2000E4CF2801F2E04F0E511CF801C080D180C3
:100B3000692D70E036FC02C06FEF7FEFC6010E94A6
:100B4000BF064C018201D5CFB70180E290E00E9440
:100B5000CA062A942814190409F0B0F7CECFF6017A
:100B600037FC859137FE81916F01B70190E00E94BB
:100B7000CA0651105A94F1E08F1A9108BFCF8436FB
:100B800019F0893609F077C0F80137FE6BC0608133
:100B90007181828193810C5F1F4FF32DFF763F2E71
:100BA00097FF09C090958095709561957F4F8F4F05
:100BB0009F4F689437F82AE030E0A5010E94FA06BA
:100BC000C82ECA188C2C432C36FE0CC0E89440F872
:100BD000C91440F434FE05C032FC03C0F32DFE7E80
:100BE0004F2E892C44FE95C0FE01EC0DF11D808135
:100BF000803309F087C0242D297E422E842D8870F1
:100C0000582E43FC95C040FE8FC09C2C821418F4D3
:100C10002C0C922C981844FE91C0B70180E390E010
:100C20000E94CA0642FE09C088E790E041FE02C069
:100C300088E590E0B7010E94CA06C91408F48AC08A
:100C4000CA94D12C9FEFC91AD90ACA0CDB1CF60131
:100C500082916F01B70190E00E94CA06AC14BD04F6
:100C6000B1F74FCF60817181072E000C880B990B73
:100C70000E5F1F4F92CFD32CE894D4F82AE030E0D7
:100C8000853739F1232D297FD22E8F3601F148F493
:100C90008835A9F0F701868197812B96E2E10C94C3
:100CA0007407803749F08837A9F7D4FE02C06894EA
:100CB000D2F820E130E00DC06894D4F8F6CF34FECD
:100CC00003C0822F8660D82E20E132E002C028E0E7
:100CD00030E0F801D7FE0FC060817181828193817D
:100CE0000C5F1F4FA5010E94FA06C82ECA183D2CA2
:100CF000E89437F867CF6081718190E080E00E5F03
:100D00001F4FF0CF42FC02C0839478CF839483942A
:100D100075CF842D867809F471CFF6CFB70180E2C4
:100D200090E00E94CA0683948214C0F3512C73CFC2
:100D3000522C5818821408F46ECFF8CF842D867880
:100D400009F47BCF8BE241FE80E247FC8DE2B701E4
:100D500090E071CFB70180E390E00E94CA069A94B8
:100D60006CCF8FEF9FEF99CFFC01059061507040E1
:100D70000110D8F7809590958E0F9F1F0895FC0164
:100D80006150704001900110D8F7809590958E0FBA
:100D90009F1F08950F931F93CF93DF93182F092F51
:100DA000EB018B8181FD09C01FEF0FEF812F902F89
:100DB000DF91CF911F910F91089582FF14C02E8172
:100DC0003F818C819D81281739073CF4E881F981A6
:100DD000CF0101969983888310838E819F8101962C
:100DE0009F838E83E3CFE885F985812F0995892B31
:100DF000A1F3DACFFA01AA27283051F1203181F18D
:100E0000E8946F936E7F6E5F7F4F8F4F9F4FAF4F12
:100E1000B1E03ED0B4E03CD0670F781F891F9A1F25
:100E2000A11D680F791F8A1F911DA11D6A0F711DD9
:100E3000811D911DA11D20D009F468943F912AE0E5
:100E4000269F11243019305D3193DEF6CF010895CD
:100E5000462F4770405D4193B3E00FD0C9F7F6CFFE
:100E6000462F4F70405D4A3318F0495D31FD4052C6
:100E7000419302D0A9F7EACFB4E0A695979587955C
:100E800077956795BA95C9F700976105710508953B
:100E90009B01AC010A2E06945795479537952795E7
:100EA000BA95C9F7620F731F841F951FA01D08957F
:100EB0002F923F924F925F926F927F928F929F926A
:100EC000AF92BF92CF92DF92EF92FF920F931F9358
:100ED000CF93DF93CDB7DEB7CA1BDB0B0FB6F89409
:100EE000DEBF0FBECDBF09942A88398848885F8449
:100EF0006E847D848C849B84AA84B984C884DF80BA
:100F0000EE80FD800C811B81AA81B981CE0FD11D9D
:100F10000FB6F894DEBF0FBECDBFED010895F89473
:020F2000FFCF01
:100F22001E0000000003000000003F02000000005D
:100F3200F1F2F4F8C0F9A4B0999282F88090536566
:0C0F4200636F6E64733A202564200A007F
:00000001FF
