:100000000C9434000C943E000C943E000C943E0082
:100010000C94F3000C943E000C943E000C943E00B3
:100020000C943E000C943E000C943E000C943E0058
:100030000C943E000C943E000C943E000C943E0048
:100040000C943E000C943E000C943E000C943E0038
:100050000C943E000C943E000C943E000C943E0028
:100060000C943E000C943E0011241FBECFEFD8E04C
:10007000DEBFCDBF0E94CF000C9465010C94000040
:100080009C01215031092430310568F425B10196D5
:1000900041E050E0BA0102C0660F771F8A95E2F78F
:1000A000CB01822B85B90895CF93DF93C1E0D0E0D7
:1000B00004C0CE010E9440002196C530D105CCF38A
:1000C000DF91CF9108959C012150310925303105F0
:1000D00068F445B12E5F3F4F81E090E002C0880F89
:1000E000991F2A95E2F78095842385B908959C018C
:1000F000215031092430310568F424B1019641E0E2
:1001000050E0BA0102C0660F771F8A95E2F7CB0173
:10011000822B84B90895CF93DF93C1E0D0E004C06F
:10012000CE010E9477002196C530D105CCF3DF9136
:10013000CF91089587B18B7F87B988B1846088B9E2
:10014000E8E6F0E0808182608083ECE6F0E0808188
:100150008E6080830895AC0101970397E8F426B17F
:1001600030E0042E02C0359527950A94E2F720FD71
:1001700013C08FE99FE00197F1F700C0000096B12E
:10018000892F90E002C0959587954A95E2F7809572
:10019000909581709927089590E080E008950E94DD
:1001A0009A000E948B000E945400789483E090E0B3
:1001B0000E94630084E090E00E9463002FEF87EAD2
:1001C00091E6215080409040E1F700C000000E947D
:1001D00054002FEF87EA91E6215080409040E1F7EC
:1001E00000C00000E3CF1F920F920FB60F921124B0
:1001F0002F933F934F935F936F937F938F939F932F
:10020000AF93BF93CF93DF93EF93FF9381E090E0A1
:100210000E94AB000197D1F082E090E00E94AB0019
:10022000019709F44FC0FF91EF91DF91CF91BF91FA
:10023000AF919F918F917F916F915F914F913F917E
:100240002F910F900FBE0F901F90189582E090E0B5
:100250000E94630083E090E00E9463002FEF83E23E
:1002600094EF215080409040E1F700C000000E94D0
:1002700054002FEF83E294EF215080409040E1F74B
:1002800000C00000C9CF83E090E00E9463002FEF20
:1002900089E698E1215080409040E1F700C00000DD
:1002A00083E090E00E9440002FEF89E698E1215022
:1002B00080409040E1F700C000002196C830D10591
:0E02C00014F3B1CFD0E0C0E0F9CFF894FFCF37
:00000001FF
