:100000000C9434000C943E000C943E000C943E0082
:100010000C943E000C943E000C943E000C943E0068
:100020000C943E000C943E000C943E000C943E0058
:100030000C943E000C943E000C943E000C943E0048
:100040000C943E000C943E000C943E000C943E0038
:100050000C943E000C943E000C943E000C943E0028
:100060000C943E000C943E0011241FBECFEFD8E04C
:10007000DEBFCDBF0E9478010C94DE030C9400001B
:100080008430910568F425B1029641E050E0BA0150
:1000900002C0660F771F8A95E2F7CB01822B85B9E4
:1000A0000895CF93DF93D0E0C0E004C0CE010E945A
:1000B00040002196C430D105CCF3DF91CF91089553
:1000C0008430910570F445B19C012E5F3F4F81E073
:1000D00090E002C0880F991F2A95E2F7809584234B
:1000E00085B908954F925F926F927F928F929F92FF
:1000F000AF92BF92CF92DF92EF92FF920F931F9336
:10010000CF93DF9300D000D000D0CDB7DEB78C0105
:10011000CB01BA013E832D8320E030E040E251E480
:100120000E9419022B013C01AC019B0160E070E0D0
:1001300080E291E40E94A70169837A838B839C8388
:10014000C12CD12C76013DC020E030E040E251E4EA
:10015000C301B2010E9471030E948B0206C080E9B4
:1001600091E00197F1F76150710961157105B9F7D7
:100170005FC081E090E05AC020E030E040E251E40E
:1001800069817A818B819C810E9471030E948B021C
:1001900006C080E991E00197F1F76150710961159E
:1001A0007105B9F704C081E090E00197F1F720E014
:1001B00030E040E251E4C701B6010E94A8016B01A2
:1001C0007C012D813E81B901330F880B990B0E9470
:1001D000BC02A70196010E941402882309F451C0B1
:1001E000C8010E94600020E030E04AE755E4C30106
:1001F000B2010E9471034B015C0120E030E040E855
:100200005FE30E94140288230CF4B3CF20E03FEF99
:100210004FE757E4C501B4010E946C0318160CF4B3
:1002200093CFC501B4010E948B02CB010197F1F776
:10023000C8010E94400020E030E04AE755E46981AF
:100240007A818B819C810E9471034B015C0120E0CB
:1002500030E040E85FE30E94140288230CF4A3CF4F
:1002600020E03FEF4FE757E4C501B4010E946C0363
:1002700018160CF481CFC501B4010E948B02CB018A
:1002800094CF26960FB6F894DEBF0FBECDBFDF9198
:10029000CF911F910F91FF90EF90DF90CF90BF9083
:1002A000AF909F908F907F906F905F904F90089548
:1002B0008430910568F424B1029641E050E0BA011F
:1002C00002C0660F771F8A95E2F7CB01822B84B9B3
:1002D0000895CF93DF93D0E0C0E004C0CE010E9428
:1002E00058012196C430D105CCF3DF91CF91089508
:1002F0000E9469010E94510028EE33E040E050E086
:1003000060E271E490E080E00E94720020ED37E04E
:1003100040E050E060EF71E481E090E00E94720004
:1003200028EB3BE040E050E068E472E482E090E0DB
:100330000E94720020EA3FE040E050E06CE872E486
:1003400083E090E00E94720090E080E008955058B1
:10035000BB27AA270E94BF010C9432030E942403EA
:1003600038F00E942B0320F039F49F3F19F426F453
:100370000C9421030EF4E095E7FB0C941B03E92F8A
:100380000E94430358F3BA1762077307840795075F
:1003900020F079F4A6F50C9465030EF4E0950B2E8D
:1003A000BA2FA02D0B01B90190010C01CA01A001C7
:1003B0001124FF27591B99F0593F50F4503E68F122
:1003C0001A16F040A22F232F342F4427585FF3CF63
:1003D000469537952795A795F0405395C9F77EF434
:1003E0001F16BA0B620B730B840BBAF09150A1F07D
:1003F000FF0FBB1F661F771F881FC2F70EC0BA0F03
:10040000621F731F841F48F4879577956795B7958A
:10041000F7959E3F08F0B0CF9395880F08F0992785
:10042000EE0F9795879508950E94F70208F481E0F2
:1004300008950E942D020C9432030E942B0358F061
:100440000E94240340F029F45F3F29F00C941B0321
:1004500051110C9466030C9421030E94430368F32A
:100460009923B1F3552391F3951B550BBB27AA276D
:1004700062177307840738F09F5F5F4F220F331FA7
:10048000441FAA1FA9F335D00E2E3AF0E0E832D06F
:1004900091505040E695001CCAF72BD0FE2F29D072
:1004A000660F771F881FBB1F261737074807AB0744
:1004B000B0E809F0BB0B802DBF01FF2793585F4FB9
:1004C0003AF09E3F510578F00C941B030C946603A0
:1004D0005F3FE4F3983ED4F3869577956795B7959B
:1004E000F7959F5FC9F7880F911D9695879597F9A6
:1004F0000895E1E0660F771F881FBB1F621773071F
:100500008407BA0720F0621B730B840BBA0BEE1F33
:1005100088F7E09508950E944B0388F09F5798F064
:10052000B92F9927B751B0F0E1F0660F771F881FF8
:10053000991F1AF0BA95C9F714C0B13091F00E9412
:100540006503B1E008950C946503672F782F882721
:10055000B85F39F0B93FCCF3869577956795B39539
:10056000D9F73EF490958095709561957F4F8F4FA8
:100570009F4F0895E89409C097FB3EF490958095AD
:10058000709561957F4F8F4F9F4F9923A9F0F92F59
:1005900096E9BB279395F695879577956795B795D7
:1005A000F111F8CFFAF4BB0F11F460FF1BC06F5FBD
:1005B0007F4F8F4F9F4F16C0882311F096E911C0CF
:1005C000772321F09EE8872F762F05C0662371F0F0
:1005D00096E8862F70E060E02AF09A95660F771F04
:1005E000881FDAF7880F9695879597F90895990FE0
:1005F0000008550FAA0BE0E8FEEF16161706E807ED
:10060000F907C0F012161306E407F50798F0621B0D
:10061000730B840B950B39F40A2661F0232B242BE2
:10062000252B21F408950A2609F4A140A6958FEF01
:10063000811D811D089597F99F6780E870E060E053
:1006400008959FEF80EC089500240A94161617066B
:1006500018060906089500240A94121613061406B3
:1006600005060895092E0394000C11F4882352F016
:10067000BB0F40F4BF2B11F460FF04C06F5F7F4FCE
:100680008F4F9F4F089557FD9058440F551F59F0B5
:100690005F3F71F04795880F97FB991F61F09F3F6F
:1006A00079F087950895121613061406551FF2CF98
:1006B0004695F1DF08C0161617061806991FF1CFE8
:1006C00086957105610508940895E894BB2766270F
:1006D0007727CB0197F908950E94F70208F48FEF6E
:1006E00008950E9484030C9432030E94240338F07E
:1006F0000E942B0320F0952311F00C941B030C9403
:10070000210311240C9466030E94430370F3959F08
:10071000C1F3950F50E0551F629FF001729FBB27F8
:10072000F00DB11D639FAA27F00DB11DAA1F649F94
:100730006627B00DA11D661F829F2227B00DA11D47
:10074000621F739FB00DA11D621F839FA00D611DCD
:10075000221F749F3327A00D611D231F849F600DEE
:10076000211D822F762F6A2F11249F5750409AF017
:10077000F1F088234AF0EE0FFF1FBB1F661F771FA3
:10078000881F91505040A9F79E3F510580F00C946E
:100790001B030C9466035F3FE4F3983ED4F3869505
:1007A00077956795B795F795E7959F5FC1F7FE2B0E
:1007B000880F911D9695879597F90895F894FFCF26
:00000001FF
