:100000000C9434000C943E000C943E000C943E0082
:100010000C9470000C943E000C943E000C943E0036
:100020000C943E000C943E000C943E000C943E0058
:100030000C943E000C943E000C943E000C943E0048
:100040000C943E000C943E000C943E000C943E0038
:100050000C943E000C943E000C943E000C943E0028
:100060000C943E000C943E0011241FBECFEFD8E04C
:10007000DEBFCDBF0E9440000C9491000C940000A4
:1000800084B18C6084B985B18C6085B987B18D7F6E
:1000900087B988B1826088B9E8E6F0E08081826043
:1000A0008083ECE6F0E0808182608083789485B183
:1000B0008B7F85B92FEF81EE94E0215080409040F6
:1000C000E1F700C0000085B1846085B92FEF81EEB3
:1000D00094E0215080409040E1F700C00000E7CF5D
:1000E0001F920F920FB60F9211248F939F93319905
:1000F0000DC08FE99FE00197F1F700C00000319932
:1001000005C02B990AC085B1886085B99F918F91F0
:100110000F900FBE0F901F90189585B1877F85B9FE
:06012000F5CFF894FFCFBB
:00000001FF
