:100000000C9434000C9451000C9451000C94510049
:100010000C9451000C9451000C9451000C9451001C
:100020000C9451000C9451000C9451000C9451000C
:100030000C9451000C9451000C9451000C945100FC
:100040000C9451000C9451000C9451000C945100EC
:100050000C9451000C9451000C9451000C945100DC
:100060000C9451000C94510011241FBECFEFD8E026
:10007000DEBFCDBF11E0A0E0B1E0E8EBF6E002C0EA
:1000800005900D92A430B107D9F721E0A4E0B1E0CA
:1000900001C01D92A830B207E1F70E94A1000C94A4
:1000A0005A030C94000025B1AC014E5F5F4F81E014
:1000B00090E002C0880F991F4A95E2F7282725B9DA
:1000C00008958430910568F425B1029641E050E02E
:1000D000BA0102C0660F771F8A95E2F7CB01822B27
:1000E00085B90895CF93DF93D0E0C0E004C0CE017E
:1000F0000E9461002196C430D105CCF3DF91CF91ED
:1001000008958430910568F424B1029641E050E0EE
:10011000BA0102C0660F771F8A95E2F7CB01822BE6
:1001200084B90895CF93DF93D0E0C0E004C0CE013E
:100130000E9481002196C430D105CCF3DF91CF918C
:100140000895CF93DF9300D000D0CDB7DEB7CE01B6
:1001500001960E940801CB010E946C010E9492004E
:100160000E9472001EC001978C6F9F6F01961FC086
:1001700020E030E040E251E4C501B4010E949D025C
:100180000E94DF0106C080E991E00197F1F761501C
:10019000710961157105B9F704C081E090E001971C
:1001A000F1F70E946701837090789923E4F20E942E
:1001B00053000E94670164E670E00E943203BC01B4
:1001C000990F880B990B0E9410024B015C0120E0F3
:1001D00030E04AE755E40E949D026B017C0120E07B
:1001E00030E040E85FE30E94DA018823B4F220E0C7
:1001F0003FEF4FE757E4C701B6010E949802181677
:100200000CF4B6CFC701B6010E94DF01CB01C7CF06
:10021000FC010FB6F8946091040170910501809182
:100220000601909107010FBE309721F06083718322
:100230008283938308958F929F92AF92BF92CF92C1
:10024000DF92EF92FF92CF93DF93EC016881798187
:100250008A819B81611571058105910521F464E214
:1002600079ED8BE597E02DE133EF41E050E00E941E
:10027000770149015A019B01AC01A7EAB1E40E9450
:1002800096016B017C01ACEEB4EFA50194010E94D4
:10029000A401DC01CB018C0D9D1DAE1DBF1DB7FF60
:1002A00003C00197A109B04888839983AA83BB83BF
:1002B0009F77DF91CF91FF90EF90DF90CF90BF902D
:1002C000AF909F908F9008950E941B01089580E049
:1002D00091E00E941B010895B0E0A0E0809300012E
:1002E00090930101A0930201B09303010895052E9C
:1002F00097FB1EF400940E948E0157FD07D00E94C8
:10030000A90107FC03D04EF40C948E015095409542
:10031000309521953F4F4F4F5F4F089590958095B1
:10032000709561957F4F8F4F9F4F08950E94CB012D
:10033000A59F900DB49F900DA49F800D911D112439
:100340000895B7FF0C9496010E949601821B930BAF
:100350000895A1E21A2EAA1BBB1BFD010DC0AA1F06
:10036000BB1FEE1FFF1FA217B307E407F50720F01E
:10037000A21BB30BE40BF50B661F771F881F991F99
:100380001A9469F760957095809590959B01AC01E2
:10039000BD01CF010895A29FB001B39FC001A39FEB
:1003A000700D811D1124911DB29F700D811D1124AE
:1003B000911D08950E944B0208F481E008950E9467
:1003C000770288F09F5798F0B92F9927B751B0F06E
:1003D000E1F0660F771F881F991F1AF0BA95C9F7C9
:1003E00014C0B13091F00E949102B1E008950C94D4
:1003F0009102672F782F8827B85F39F0B93FCCF387
:10040000869577956795B395D9F73EF49095809545
:10041000709561957F4F8F4F9F4F0895E89409C065
:1004200097FB3EF490958095709561957F4F8F4F27
:100430009F4F9923A9F0F92F96E9BB279395F6953D
:10044000879577956795B795F111F8CFFAF4BB0FBB
:1004500011F460FF1BC06F5F7F4F8F4F9F4F16C01F
:10046000882311F096E911C0772321F09EE8872FA9
:10047000762F05C0662371F096E8862F70E060E065
:100480002AF09A95660F771F881FDAF7880F9695DE
:10049000879597F90895990F0008550FAA0BE0E882
:1004A000FEEF16161706E807F907C0F01216130636
:1004B000E407F50798F0621B730B840B950B39F476
:1004C0000A2661F0232B242B252B21F408950A26DC
:1004D00009F4A140A6958FEF811D811D089557FD58
:1004E0009058440F551F59F05F3F71F04795880FA2
:1004F00097FB991F61F09F3F79F087950895121639
:1005000013061406551FF2CF4695F1DF08C01616E4
:1005100017061806991FF1CF869571056105089495
:100520000895E894BB2766277727CB0197F90895AC
:100530000E944B0208F48FEF08950E94B0020C94C1
:1005400021030E94130338F00E941A0320F0952320
:1005500011F00C940A030C94100311240C949202D1
:100560000E946F0270F3959FC1F3950F50E0551FE5
:10057000629FF001729FBB27F00DB11D639FAA27F8
:10058000F00DB11DAA1F649F6627B00DA11D661F47
:10059000829F2227B00DA11D621F739FB00DA11D68
:1005A000621F839FA00D611D221F749F3327A00D22
:1005B000611D231F849F600D211D822F762F6A2FBE
:1005C00011249F5750409AF0F1F088234AF0EE0F23
:1005D000FF1FBB1F661F771F881F91505040A9F750
:1005E0009E3F510580F00C940A030C9492025F3FE9
:1005F000E4F3983ED4F3869577956795B795F7958C
:10060000E7959F5FC1F7FE2B880F911D9695879503
:1006100097F9089597F99F6780E870E060E0089582
:100620009FEF80EC089500240A941616170618060A
:100630000906089500240A941216130614060506E6
:100640000895092E0394000C11F4882352F0BB0F77
:1006500040F4BF2B11F460FF04C06F5F7F4F8F4FDA
:100660009F4F089597FB072E16F4009407D077FD4F
:1006700009D00E94460307FC05D03EF49095819571
:100680009F4F0895709561957F4F0895AA1BBB1BDE
:1006900051E107C0AA1FBB1FA617B70710F0A61B82
:1006A000B70B881F991F5A95A9F780959095BC01A3
:0806B000CD010895F894FFCF7D
:0406B800010000003D
:00000001FF
