:100000000C9434000C9451000C9451000C94510049
:100010000C9451000C9451000C9451000C9451001C
:100020000C9451000C9451000C9451000C9451000C
:100030000C9451000C9451000C9451000C945100FC
:100040000C9451000C9451000C9451000C945100EC
:100050000C9451000C9451000C9451000C945100DC
:100060000C9451000C94510011241FBECFEFD8E026
:10007000DEBFCDBF21E0A8EBB1E001C01D92A23CE4
:10008000B207E1F711E0A0E0B1E0EAE4FCE002C071
:1000900005900D92A83BB107D9F70E94D3000C94AC
:1000A00023060C9400009091C00095FFFCCF809334
:1000B000C60008950F931F93CF938C01C0E003C037
:1000C0000E945300CF5FF801EC0FF11D8081811178
:1000D000F7CFCF911F910F9108959091C00095FF98
:1000E000FCCF8093C60090E080E008951092C50098
:1000F00087E68093C400E0ECF0E080818D7F808310
:1001000088E18093C10086E08093C20080E091E0A6
:100110009093BB018093BA010895CF92DF92EF9242
:10012000FF920F931F93CF93DF938C017B018AE59E
:1001300091E00E945A00D0E0C0E01AC0082E000CE6
:10014000990B0E9467038FEFC81AD80AFE01EE0FC1
:10015000FF1FE00FF11F0190F081E02DEC0DFD1D60
:1001600080818111EBCF82E691E00E945A002196B6
:10017000CE15DF057CF4DF93CF9384E691E09F9367
:100180008F930E9451030F900F900F900F90D12CDE
:10019000C12CDCCFDF91CF911F910F91FF90EF9099
:1001A000DF90CF900895AF92BF92CF92DF92EF92FF
:1001B000FF920F931F93CF93DF93CDB7DEB7C45554
:1001C000D1090FB6F894DEBF0FBECDBF0E947600F6
:1001D00062E070E085E090E00E9402028C0186E718
:1001E00091E00E945A00F12CE12C16C0F701EE0FAD
:1001F000FF1FE00FF11F81818F9380818F9384E92E
:1002000091E09F938F930E9451032FEFE21AF20A1D
:100210000F900F900F900F9035E0E316F10434F338
:100220008AE090E00E941E027C0189E991E00E9430
:100230005A00D12CC12C16C0F601EE0FFF1FEE0D97
:10024000FF1D81818F9380818F9384E991E09F933B
:100250008F930E9451038FEFC81AD80A0F900F9006
:100260000F900F9095E0C916D10434F3F70190E098
:1002700080E009C0889F9001899F300D300D1124C6
:1002800021933193019685309105A4F3C8010E9412
:10029000BA02C7010E94BA0286E4E4E1F1E0DE019D
:1002A000119601900D928A95E1F710E000E02AC0C6
:1002B0007801EE0CFF1CEE0CFF1CE00EF11EEE0CA4
:1002C000FF1CE1E0F0E0EC0FFD1FEE0EFF1EF7015A
:1002D00001900020E9F73197CF018E199F0901960F
:1002E0000E941E02F801EE0FFF1F27E430E02C0FE2
:1002F0003D1FE20FF31F91838083B7010E944A03E1
:100300000F5F1F4F073011059CF267E070E0CE01D0
:10031000895B9F4F0E948D0010E000E00FC0F80144
:10032000EE0FFF1F87E490E08C0F9D1FE80FF91F71
:10033000808191810E94BA020F5F1F4F0730110523
:1003400074F362E070E087E090E00E9402026C01CA
:1003500010E000E027C07801EE0CFF1CEE0CFF1C43
:10036000E00EF11EEE0CFF1CE1E0F0E0EC0FFD1FD3
:10037000EE0EFF1EF70101900020E9F73197CF0143
:100380008E199F095801AA0CBB1CAC0CBD1C019610
:100390000E941E02F50191838083B7010E944A03E7
:1003A0000F5F1F4F07301105B4F267E070E0C60120
:1003B0000E948D0010E000E00BC0F801EE0FFF1F5F
:1003C000EC0DFD1D808191810E94BA020F5F1F4FCD
:1003D0000730110594F3C6010E94BA0290E080E054
:1003E000CC5ADF4F0FB6F894DEBF0FBECDBFDF9102
:1003F000CF911F910F91FF90EF90DF90CF90BF9022
:10040000AF9008950F931F93CF93DF93869F800142
:10041000879F100D969F100D1124C8010E941E0287
:10042000EC01009729F0A80170E060E00E9443030E
:10043000CE01DF91CF911F910F9108950F931F93DC
:10044000CF93DF938230910510F482E090E0E09149
:10045000C001F091C10130E020E0B0E0A0E03097B1
:1004600099F42115310509F44AC0281B390B2430B1
:100470003105D8F58A819B816115710589F1FB01F0
:1004800093838283FE0111C04081518102811381D7
:1004900048175907E0F04817590799F4109761F089
:1004A00012960C93129713961C933296CF01DF91FC
:1004B000CF911F910F9108950093C0011093C10136
:1004C000F4CF2115310551F04217530738F0A90137
:1004D000DB019A01BD01DF01F801C1CFEF01F9CFC6
:1004E0009093C1018093C001CDCFFE01E20FF31FB5
:1004F000819391932250310939832883D7CF20915A
:10050000BE013091BF01232B41F4209110013091A5
:1005100011013093BF012093BE0120910E01309153
:100520000F012115310541F42DB73EB7409112015D
:1005300050911301241B350BE091BE01F091BF01D6
:10054000E217F307A0F42E1B3F0B2817390778F0AA
:10055000AC014E5F5F4F2417350748F04E0F5F1F09
:100560005093BF014093BE01819391939FCFF0E0E0
:10057000E0E09CCFCF93DF930097E9F0FC01329746
:1005800013821282A091C001B091C101ED0130E04F
:1005900020E01097A1F420813181820F931F2091D8
:1005A000BE013091BF012817390709F061C0F093EF
:1005B000BF01E093BE01DF91CF910895EA01CE170C
:1005C000DF07E8F54A815B819E0141155105B1F7CE
:1005D000E901FB83EA8349915991C40FD51FEC17B8
:1005E000FD0761F4808191810296840F951FE901D6
:1005F00099838883828193819B838A83F0E0E0E002
:1006000012968D919C9113970097B9F52D913C917D
:100610001197CD010296820F931F2091BE01309158
:10062000BF012817390739F6309751F51092C101EB
:100630001092C001B093BF01A093BE01BCCFD38381
:10064000C28340815181840F951FC817D90761F477
:100650004E5F5F4F88819981480F591F51834083B6
:100660008A819B81938382832115310509F0B0CF64
:10067000F093C101E093C0019ECFFD01DC01C0CF2A
:1006800013821282D7CFDC0101C06D9341505040DC
:10069000E0F70895FB01DC0101900D920020E1F7E5
:1006A0000895B0E0A0E0E7E5F3E00C94FC05AE01AE
:1006B0004B5F5F4FFA0161917191AF018091BA0177
:1006C0009091BB010E946E03E2E00C9418066091C9
:1006D000BA017091BB010E945E050895ABE0B0E0E5
:1006E000E4E7F3E00C94EC057C013B018A01FC019A
:1006F00017821682838181FFC8C1CE0101965C01F9
:10070000F7019381F30193FD859193FF81913F015F
:10071000882309F453C1853239F493FD859193FF01
:1007200081913F01853229F4B70190E00E945E0576
:10073000E7CF912C212C312CFFE1F31538F08B32CF
:1007400011F190F4803209F1833229F137FC3CC079
:1007500020ED280F2A3050F536FE20C08AE0989E02
:10076000200D1124922E06C08D3291F0803371F746
:10077000689430F8F30193FD859193FF81913F01D7
:100780008111DACF21C0689431F8689432F8F2CF41
:10079000689433F8EFCF689434F8ECCFEAE02E9EFB
:1007A000200D1124222E689435F8E4CF8E3229F4DE
:1007B00036FC04C1689436F8DDCF8C3619F46894A1
:1007C00037F8D8CF8836B1F2982F9F7D9554933063
:1007D000E0F08336A1F18337C1F1833509F063C0BE
:1007E0002801F2E04F0E511CF801C080D180692D24
:1007F00070E036FC02C06FEF7FEFC6010E94480533
:100800004C01689437F882010AC00C5F1F4FFFE368
:10081000F98388248394912C6501E89437F833FE9A
:100820002DC0522C8114910471F5552009F468CF24
:10083000B70180E290E00E945E055A94F6CFF8017D
:10084000808189830E5F1F4FE4CF2801F2E04F0EB5
:10085000511CF801C080D180692D70E036FC02C0C7
:100860006FEF7FEFC6010E9453054C018201D5CF87
:10087000B70180E290E00E945E052A9428141904D2
:1008800009F0B0F7CECFF60137FC859137FE8191A4
:100890006F01B70190E00E945E0551105A94F1E09B
:1008A0008F1A9108BFCF843619F0893609F077C0C6
:1008B000F80137FE6BC060817181828193810C5F8A
:1008C0001F4FF32DFF763F2E97FF09C0909580951F
:1008D000709561957F4F8F4F9F4F689437F82AE04E
:1008E00030E0A5010E948E05C82ECA188C2C432C1E
:1008F00036FE0CC0E89440F8C91440F434FE05C03C
:1009000032FC03C0F32DFE7E4F2E892C44FE95C091
:10091000FE01EC0DF11D8081803309F087C0242D8C
:10092000297E422E842D8870582E43FC95C040FEAF
:100930008FC09C2C821418F42C0C922C981844FE16
:1009400091C0B70180E390E00E945E0542FE09C0BD
:1009500088E790E041FE02C088E590E0B7010E9480
:100960005E05C91408F48AC0CA94D12C9FEFC91A35
:10097000D90ACA0CDB1CF60182916F01B70190E025
:100980000E945E05AC14BD04B1F74FCF6081718148
:10099000072E000C880B990B0E5F1F4F92CFD32CA4
:1009A000E894D4F82AE030E0853739F1232D297F07
:1009B000D22E8F3601F148F48835A9F0F7018681EF
:1009C00097812B96E2E10C940806803749F088372E
:1009D000A9F7D4FE02C06894D2F820E130E00DC03F
:1009E0006894D4F8F6CF34FE03C0822F8660D82EE8
:1009F00020E132E002C028E030E0F801D7FE0FC06D
:100A000060817181828193810C5F1F4FA5010E94DB
:100A10008E05C82ECA183D2CE89437F867CF608140
:100A2000718190E080E00E5F1F4FF0CF42FC02C06A
:100A3000839478CF8394839475CF842D867809F43A
:100A400071CFF6CFB70180E290E00E945E058394FB
:100A50008214C0F3512C73CF522C5818821408F40E
:100A60006ECFF8CF842D867809F47BCF8BE241FEE0
:100A700080E247FC8DE2B70190E071CFB70180E3DF
:100A800090E00E945E059A946CCF8FEF9FEF99CF14
:100A9000FC010590615070400110D8F78095909549
:100AA0008E0F9F1F0895FC0161507040019001104E
:100AB000D8F7809590958E0F9F1F08950F931F93E1
:100AC000CF93DF93182F092FEB018B8181FD09C094
:100AD0001FEF0FEF812F902FDF91CF911F910F917B
:100AE000089582FF14C02E813F818C819D8128173B
:100AF00039073CF4E881F981CF0101969983888315
:100B000010838E819F8101969F838E83E3CFE8853A
:100B1000F985812F0995892BA1F3DACFFA01AA274C
:100B2000283051F1203181F1E8946F936E7F6E5F30
:100B30007F4F8F4F9F4FAF4FB1E03ED0B4E03CD0DE
:100B4000670F781F891F9A1FA11D680F791F8A1FC1
:100B5000911DA11D6A0F711D811D911DA11D20D028
:100B600009F468943F912AE0269F11243019305DE2
:100B70003193DEF6CF010895462F4770405D4193D3
:100B8000B3E00FD0C9F7F6CF462F4F70405D4A3320
:100B900018F0495D31FD4052419302D0A9F7EACFE8
:100BA000B4E0A6959795879577956795BA95C9F717
:100BB00000976105710508959B01AC010A2E06940A
:100BC0005795479537952795BA95C9F7620F731FC3
:100BD000841F951FA01D08952F923F924F925F9200
:100BE0006F927F928F929F92AF92BF92CF92DF923D
:100BF000EF92FF920F931F93CF93DF93CDB7DEB7A2
:100C0000CA1BDB0B0FB6F894DEBF0FBECDBF099435
:100C10002A88398848885F846E847D848C849B848C
:100C2000AA84B984C884DF80EE80FD800C811B819A
:100C3000AA81B981CE0FD11D0FB6F894DEBF0FBEC9
:0A0C4000CDBFED010895F894FFCF39
:100C4A0000000003000000006D000000000000002A
:100C5A00C20180004375726C7900000000004C618B
:100C6A0072727900000000004D6F650000000000FC
:100C7A00000048756579000000000000446577654A
:100C8A007900000000004C6F7569650000000000E3
:100C9A00446F6E616C64000000000A4E616D6573FA
:100CAA003A200A0054686520232564206E616D6528
:100CBA002069733A20000A54686520636F6E746570
:100CCA006E7473206F66206172726179207461623A
:100CDA00633A200020256420000A54686520636F67
:100CEA006E74656E7473206F66206172726179200A
:080CFA007461626D3A200000F4
:00000001FF
