:100000000C9434000C9449000C9449000C94490061
:100010000C9449000C9449000C9449000C9449003C
:100020000C9449000C9449000C9449000C9449002C
:100030000C9449000C9449000C9449000C9449001C
:100040000C9449000C9449000C9449000C9449000C
:100050000C9449000C9449000C9449000C944900FC
:100060000C9449000C94490011241FBECFEFD8E036
:10007000DEBFCDBF11E0A0E0B1E0EAEBF1E002C0ED
:1000800005900D92AE30B107D9F70E949C000C94F8
:10009000DB000C94000090E018C047E050E0491BE2
:1000A0005109282F30E002C0359527954A95E2F78F
:1000B00021702130C1F025B12E7F25B92BB12068E8
:1000C0002BB92BB12F772BB99F5F983080F461113A
:1000D000E4CF282F30E0092E02C0359527950A94E9
:1000E000E2F72170E6CF25B1216025B9E7CF089569
:1000F000CF93C82F8BB18F7E8BB9E62FF0E0EC5FEA
:10010000FE4F61E080810E944B00EC2FF0E0E05058
:10011000FF4F61E080810E944B008BB180618BB901
:10012000CF9108958AB180618AB98AB180688AB90D
:1001300084B1816084B908950E949200D0E0C0E04B
:1001400037C06C2F80E00E9478008FE19EE4019719
:10015000F1F700C000006C2F6F5F81E00E94780013
:100160008FE19EE40197F1F700C000006C2F6E5FF5
:1001700082E00E9478008FE19EE40197F1F700C0D1
:1001800000006C2F6D5F83E00E9478008FE19EE499
:100190000197F1F700C000000F5F1F4F02331105F8
:1001A00034F4C730D10569F6D0E0C0E0CACF21965B
:0A01B00010E000E0F3CFF894FFCF59
:0E01BA00F1F2F4F8C0F9A4B0999282F88090A6
:00000001FF
