:100000000C9434000C9451000C9451000C94510049
:100010000C9451000C9451000C9451000C9451001C
:100020000C9451000C9451000C9451000C9451000C
:100030000C9451000C9451000C9451000C945100FC
:100040000C9451000C9451000C9451000C945100EC
:100050000C9451000C9451000C9451000C945100DC
:100060000C9451000C94510011241FBECFEFD8E026
:10007000DEBFCDBF11E0A0E0B1E0E2E8FBE002C0EE
:1000800005900D92A037B107D9F721E0A0E7B1E0C4
:1000900001C01D92A637B207E1F70E9481010C94BE
:1000A000BF050C9400009091C00095FFFCCF809399
:1000B000C60090E080E008951092C50087E6809326
:1000C000C400E0ECF0E080818D7F808388E1809344
:1000D000C10086E08093C20080E091E090937301BC
:1000E0008093720108950F931F93CF93DF938C0138
:1000F000EB010E944B0264E370E00E94BE02FC012F
:10010000EE0FFF1FE80FF91FEE0FFF1FEE0FFF1F8F
:10011000EC0FFD1F8CE0D80101900D928A95E1F75C
:10012000C801DF91CF911F910F910895EF92FF9237
:100130000F931F93CF93DF93CDB7DEB72C970FB6F6
:10014000F894DEBF0FBECDBFE982FA820B831C8319
:100150002D833E834F83588769877A878B879C8757
:1001600089819A818B309105B1F1BCF08C30910579
:1001700009F440C08D30910509F04BC0CE010396C3
:100180009F938F938BE591E09F938F930E94ED0255
:100190000F900F900F900F9011C081309105C9F50D
:1001A000CE0103969F938F938AE391E09F938F9361
:1001B0000E94ED020F900F900F900F902C960FB6AB
:1001C000F894DEBF0FBECDBFDF91CF911F910F918D
:1001D000FF90EF900895CE0103969F938F9384E450
:1001E00091E09F938F930E94ED020F900F900F90DC
:1001F0000F90E4CFCE0103969F938F938FE491E00D
:100200009F938F930E94ED020F900F900F900F908D
:10021000D5CF9E012D5F3F4F3F932F939F938F9399
:1002200086E691E09F938F930E94ED020F900F90CE
:100230000F900F900F900F90C1CFCF92DF92EF925F
:10024000FF920F931F93CF93DF93CDB7DEB7A8979D
:100250000FB6F894DEBF0FBECDBF6C0188E2E2E1BD
:10026000F1E0DE01119601900D928A95E1F7F12CF3
:10027000E12C31C02DE02E9DC0012F9D900D112449
:100280009C01200F311FC901880F991F820F931FF6
:10029000880F991F880F991F0F5F1F4F8C0D9D1D91
:1002A000FC0101931193CF01B701660F771F660F11
:1002B000771F6E0D7F1D660F771F21E030E02C0F3A
:1002C0003D1F620F731F0E94E6020D30110594F26C
:1002D0003FEFE31AF30A84E0E816F1041CF410E09F
:1002E00000E0F3CFA8960FB6F894DEBF0FBECDBFE7
:1002F000DF91CF911F910F91FF90EF90DF90CF9002
:100300000895CF92DF92EF92FF920F931F93CF93B6
:10031000DF93CDB7DEB7CC57D2400FB6F894DEBF2F
:100320000FBECDBF0E945C00CE0101960E941D0150
:10033000D12CC12C4DC0BE016F5F7F4FCE018F58B5
:100340009D4F0E947300CF58DD4FE880C157D240C7
:10035000CE58DD4FF880C257D240CD58DD4F0881CE
:10036000C357D240CC58DD4F1881C457D240CB5828
:10037000DD4F2881C557D240CA58DD4F3881C65756
:10038000D240C958DD4F4881C757D240C858DD4FC9
:100390005881C857D240C758DD4F6881C957D240ED
:1003A000C658DD4F7881CA57D240C558DD4F888185
:1003B000CB57D240C458DD4F9881CC57D2400E94D1
:1003C00096008AE090E00E9403038FEFC81AD80AD3
:1003D0008AE0C816D1040CF4AECF90E080E0C45897
:1003E000DD4F0FB6F894DEBF0FBECDBFDF91CF91CA
:1003F0001F910F91FF90EF90DF90CF9008958F9213
:100400009F92AF92BF92CF92DF92EF92FF92CF93E3
:10041000DF93EC01688179818A819B816115710587
:100420008105910521F464E279ED8BE597E02DE1FA
:1004300033EF41E050E00E945B0249015A019B0109
:10044000AC01A7EAB1E40E947A026B017C01ACEE38
:10045000B4EFA50194010E948802DC01CB018C0D50
:100460009D1DAE1DBF1DB7FF03C00197A109B04878
:1004700088839983AA83BB839F77DF91CF91FF9075
:10048000EF90DF90CF90BF90AF909F908F900895A6
:100490000E94FF0108958EE091E00E94FF010895FF
:1004A000B0E0A0E080930E0190930F01A0931001A3
:1004B000B09311010895052E97FB1EF400940E943D
:1004C000720257FD07D00E948D0207FC03D04EF444
:1004D0000C94720250954095309521953F4F4F4FA7
:1004E0005F4F089590958095709561957F4F8F4FE0
:1004F0009F4F08950E94AF02A59F900DB49F900D4D
:10050000A49F800D911D11240895B7FF0C947A02C9
:100510000E947A02821B930B0895A1E21A2EAA1B55
:10052000BB1BFD010DC0AA1FBB1FEE1FFF1FA217A3
:10053000B307E407F50720F0A21BB30BE40BF50BA0
:10054000661F771F881F991F1A9469F76095709529
:10055000809590959B01AC01BD01CF010895A29FAC
:10056000B001B39FC001A39F700D811D1124911D87
:10057000B29F700D811D1124911D089597FB072EC8
:1005800016F4009407D077FD09D00E94D20207FC30
:1005900005D03EF4909581959F4F08957095619593
:1005A0007F4F0895AA1BBB1B51E107C0AA1FBB1FA9
:1005B000A617B70710F0A61BB70B881F991F5A95EF
:1005C000A9F780959095BC01CD010895FB01DC0150
:1005D00001900D920020E1F70895B0E0A0E0E3EF74
:1005E000F2E00C949805AE014B5F5F4FFA01619108
:1005F0007191AF0180917201909173010E940A0381
:10060000E2E00C94B40560917201709173010E9454
:10061000FA040895ABE0B0E0E0E1F3E00C94880563
:100620007C013B018A01FC0117821682838181FFD4
:10063000C8C1CE0101965C01F7019381F30193FDDE
:10064000859193FF81913F01882309F453C185323D
:1006500039F493FD859193FF81913F01853229F40F
:10066000B70190E00E94FA04E7CF912C212C312CA5
:10067000FFE1F31538F08B3211F190F4803209F17B
:10068000833229F137FC3CC020ED280F2A3050F589
:1006900036FE20C08AE0989E200D1124922E06C0BE
:1006A0008D3291F0803371F7689430F8F30193FD47
:1006B000859193FF81913F018111DACF21C0689428
:1006C00031F8689432F8F2CF689433F8EFCF689439
:1006D00034F8ECCFEAE02E9E200D1124222E6894EF
:1006E00035F8E4CF8E3229F436FC04C1689436F82C
:1006F000DDCF8C3619F4689437F8D8CF8836B1F24C
:10070000982F9F7D95549330E0F08336A1F1833785
:10071000C1F1833509F063C02801F2E04F0E511C8E
:10072000F801C080D180692D70E036FC02C06FEF07
:100730007FEFC6010E94E4044C01689437F88201FF
:100740000AC00C5F1F4FFFE3F98388248394912C28
:100750006501E89437F833FE2DC0522C81149104C2
:1007600071F5552009F468CFB70180E290E00E944E
:10077000FA045A94F6CFF801808189830E5F1F4FE7
:10078000E4CF2801F2E04F0E511CF801C080D18067
:10079000692D70E036FC02C06FEF7FEFC6010E944A
:1007A000EF044C018201D5CFB70180E290E00E94B6
:1007B000FA042A942814190409F0B0F7CECFF601F0
:1007C00037FC859137FE81916F01B70190E00E945F
:1007D000FA0451105A94F1E08F1A9108BFCF843671
:1007E00019F0893609F077C0F80137FE6BC06081D7
:1007F0007181828193810C5F1F4FF32DFF763F2E15
:1008000097FF09C090958095709561957F4F8F4FA8
:100810009F4F689437F82AE030E0A5010E942A052E
:10082000C82ECA188C2C432C36FE0CC0E89440F815
:10083000C91440F434FE05C032FC03C0F32DFE7E23
:100840004F2E892C44FE95C0FE01EC0DF11D8081D8
:10085000803309F087C0242D297E422E842D887094
:10086000582E43FC95C040FE8FC09C2C821418F477
:100870002C0C922C981844FE91C0B70180E390E0B4
:100880000E94FA0442FE09C088E790E041FE02C0DF
:1008900088E590E0B7010E94FA04C91408F48AC000
:1008A000CA94D12C9FEFC91AD90ACA0CDB1CF601D5
:1008B00082916F01B70190E00E94FA04AC14BD046C
:1008C000B1F74FCF60817181072E000C880B990B17
:1008D0000E5F1F4F92CFD32CE894D4F82AE030E07B
:1008E000853739F1232D297FD22E8F3601F148F437
:1008F0008835A9F0F701868197812B96E2E10C9467
:10090000A405803749F08837A9F7D4FE02C068945F
:10091000D2F820E130E00DC06894D4F8F6CF34FE70
:1009200003C0822F8660D82E20E132E002C028E08A
:1009300030E0F801D7FE0FC0608171818281938120
:100940000C5F1F4FA5010E942A05C82ECA183D2C16
:10095000E89437F867CF6081718190E080E00E5FA6
:100960001F4FF0CF42FC02C0839478CF83948394CE
:1009700075CF842D867809F471CFF6CFB70180E268
:1009800090E00E94FA0483948214C0F3512C73CF38
:10099000522C5818821408F46ECFF8CF842D867824
:1009A00009F47BCF8BE241FE80E247FC8DE2B70188
:1009B00090E071CFB70180E390E00E94FA049A942E
:1009C0006CCF8FEF9FEF99CFFC0105906150704085
:1009D0000110D8F7809590958E0F9F1F0895FC0108
:1009E0006150704001900110D8F7809590958E0F5E
:1009F0009F1F08950F931F93CF93DF93182F092FF5
:100A0000EB018B8181FD09C01FEF0FEF812F902F2C
:100A1000DF91CF911F910F91089582FF14C02E8115
:100A20003F818C819D81281739073CF4E881F98149
:100A3000CF0101969983888310838E819F810196CF
:100A40009F838E83E3CFE885F985812F0995892BD4
:100A5000A1F3DACFFA01AA27283051F1203181F130
:100A6000E8946F936E7F6E5F7F4F8F4F9F4FAF4FB6
:100A7000B1E03ED0B4E03CD0670F781F891F9A1FC9
:100A8000A11D680F791F8A1F911DA11D6A0F711D7D
:100A9000811D911DA11D20D009F468943F912AE089
:100AA000269F11243019305D3193DEF6CF01089571
:100AB000462F4770405D4193B3E00FD0C9F7F6CFA2
:100AC000462F4F70405D4A3318F0495D31FD40526A
:100AD000419302D0A9F7EACFB4E0A6959795879500
:100AE00077956795BA95C9F70097610571050895DF
:100AF0009B01AC010A2E069457954795379527958B
:100B0000BA95C9F7620F731F841F951FA01D089522
:100B10002F923F924F925F926F927F928F929F920D
:100B2000AF92BF92CF92DF92EF92FF920F931F93FB
:100B3000CF93DF93CDB7DEB7CA1BDB0B0FB6F894AC
:100B4000DEBF0FBECDBF09942A88398848885F84EC
:100B50006E847D848C849B84AA84B984C884DF805D
:100B6000EE80FD800C811B81AA81B981CE0FD11D41
:100B70000FB6F894DEBF0FBECDBFED010895F89417
:020B8000FFCFA5
:100B8200000000030000000053000000000001000C
:100B92000000686561727473000000006469616D31
:100BA2006F6E64730000737061646573000000000F
:100BB200636C7562730000000000616365206F66FC
:100BC200202573006A61636B206F662025730071B4
:100BD2007565656E206F66202573006B696E6720F0
:100BE2006F66202573002564206F66202573000040
:00000001FF
