:100000000C9434000C943E000C943E000C943E0082
:100010000C9440000C943E000C943E000C943E0066
:100020000C943E000C943E000C943E000C943E0058
:100030000C943E000C943E000C943E000C943E0048
:100040000C943E000C943E000C943E000C943E0038
:100050000C943E000C943E000C943E000C943E0028
:100060000C943E000C943E0011241FBECFEFD8E04C
:10007000DEBFCDBF0E945D000C9485000C94000093
:100080001F920F920FB60F9211248F939F93319965
:100090000BC08FE99FE00197F1F700C00000319994
:1000A00003C02B9B08C02B989F918F910F900FBE80
:1000B0000F901F9018952B9AF7CF84B18C6084B95C
:1000C00085B18C6085B93998419A809168008260C9
:1000D0008093680080916C00826080936C007894BB
:1000E0002A982FEF81EE94E0215080409040E1F774
:1000F00000C000002A9A2FEF81EE94E0215080404A
:0E0100009040E1F700C00000EBCFF894FFCF75
:00000001FF
