:100000000C9462000C948A000C948A000C948A0070
:100010000C948A000C948A000C948A000C948A0038
:100020000C948A000C948A000C948A000C948A0028
:100030000C948A000C948A000C948A000C948A0018
:100040000C9490040C948A000C9410050C94EA040F
:100050000C948A000C948A000C948A000C948A00F8
:100060000C948A000C948A000000000024002700F1
:100070002A0000000000250028002B0004040404CE
:100080000404040402020202020203030303030342
:10009000020203010204081020408001020408103B
:1000A00020010204081020408040000000090003E5
:1000B000020000040508000000000000000000002D
:1000C0000000E30411241FBECFEFD8E0DEBFCDBF98
:1000D00011E0A0E0B1E0E4EEFAE002C005900D927C
:1000E000AE32B107D9F721E0AEE2B1E001C01D9216
:1000F000A53DB207E1F710E0C2E6D0E004C02197C9
:10010000FE010E946A05C136D107C9F70E94DA04D0
:100110000C9470050C9400008430B1F060F08830CD
:10012000C9F08930E9F0853069F4E0E8F0E08081D9
:100130008F7D808308958230C9F0833021F484B5A7
:100140008F7D84BD08950895E0E8F0E080818F7789
:1001500080830895E0EBF0E080818F7780830895BD
:10016000E0EBF0E080818F7D8083089584B58F7708
:1001700084BD08951F93CF93DF93282F30E0F901BA
:10018000E655FF4F8491F901ED56FF4F1491F901A7
:10019000E458FF4FC491CC23A9F0D62F811116C08B
:1001A000EC2FF0E0EE0FFF1FEE58FF4FA591B4913A
:1001B0008FB7F894D1110DC09C91E12FE095E92300
:1001C000EC938FBFDF91CF911F9108950E948C0017
:1001D000E7CFEC91E12BEC93F4CFFF920F931F93B9
:1001E000CF93DF93F82ED62F042F122FC0E00CC030
:1001F0008F2D0E94BA0061E08D2F0E94BA0060E04E
:100200008D2F0E94BA00CF5FC83008F501110DC0D4
:10021000812F90E00C2E02C0959587950A94E2F705
:1002200061E080FDE5CF60E0E3CF27E030E02C1B0C
:100230003109812F90E002C0959587952A95E2F7C4
:1002400061E080FF60E08F2D0E94BA00D4CFDF9183
:10025000CF911F910F91FF900895CF93DF9390E07E
:10026000FC01ED56FF4F249184589F4FFC0184916F
:10027000882319F190E0880F991FFC01E859FF4F7E
:10028000A591B491FC01EE58FF4FC591D49166231E
:1002900049F06230A9F08FB7F894EC91E22BEC931F
:1002A0008FBF0BC09FB7F8948C91E22FE0958E23FF
:1002B0008C938881E823E8839FBFDF91CF910895D5
:1002C0009FB7F8943C91822F809583238C93E8818B
:1002D000E22BE8839FBFF1CF789484B5836084BD1F
:1002E00085B5836085BDEEE6F0E080818160808326
:1002F000E1E8F0E082E08083808181608083E0E853
:10030000F0E0808181608083E1EBF0E080818460B7
:100310008083E0EBF0E080818160808387E88093D8
:100320007A001092C10008950895DC01ED91FC91CE
:100330000190F081E02D09950895CF92DF92EF9220
:10034000FF920F931F93CF93DF938C01DB01D0E0DB
:10035000C0E07A0181E0E81AF108452BA1F0F8012C
:1003600080819181FC01208131816D01FFEFCF1AE5
:10037000DF0A6C91C801F9010995892B21F02196BA
:10038000A701D601E6CFCE01DF91CF911F910F914A
:10039000FF90EF90DF90CF900895019709F00895B6
:1003A0006F3F7F4FE1F7EFE2F1E01382128288EEB8
:1003B00093E0A0E0B0E084839583A683B78384E0D4
:1003C00091E09183808385EC90E09587848784EC2D
:1003D00090E09787868780EC90E0918B808B81EC12
:1003E00090E0938B828B82EC90E0958B848B86ECF3
:1003F00090E0978B868B118E128E138E148ECFCF3A
:10040000FC01938D848D981720F4891B990B01971B
:1004100008952FE330E0291B3109820F932F911D9E
:100420000895FC01918D828D981761F0A28DAE0F19
:10043000BF2FB11D5D968C91928D9F5F9F73928FA0
:1004400090E008958FEF9FEF0895FC01918D828DCC
:10045000981731F0828DE80FF11D858D90E0089599
:100460008FEF9FEF0895FC01218D30E0205C3F4F1E
:10047000828DA901481B5109CA018F7399270895DC
:100480008FE291E00E94330221E0892B09F420E001
:10049000822F0895CF92DF92EF92FF921F93CF9316
:1004A000DF93EC016A017B01122F60E079E08DE3BC
:1004B00090E0A70196010E944805215031094109A9
:1004C00051095695479537952795E889F98982E02E
:1004D0008083C11481EED806E104F10421F02115D6
:1004E00080E1380798F0E889F989108260E874E8BB
:1004F0008EE190E0A70196010E9448052150310944
:10050000410951095695479537952795EC85FD8505
:100510003083EE85FF852083188EEC89FD8910835A
:10052000EA89FB89808188698083EA89FB898081E7
:100530008F7D8083DF91CF911F91FF90EF90DF90AF
:10054000CF900895FC01A48DA80FB92FB11DA35A17
:10055000BF4F2C91848D90E001968F739078848F9B
:10056000A689B7892C93A089B1898C9180648C93DA
:10057000938D848D981308950288F389E02D8081EE
:100580008F7D8083F8CF0F931F93CF93DF93EC0180
:1005900081E0888F9B8D8C8D9817B1F0062F8B8D05
:1005A00090E001968F739078182F8C8D81131AC06C
:1005B0000FB607FCFACFE889F989808185FFF5CF6E
:1005C000CE010E94A202F1CFE889F989808185FFDE
:1005D000E5CFEE89FF896083E889F98980818064AD
:1005E00080830DC0EB8DEC0FFD2FF11DE35AFF4F03
:1005F00000831B8FEA89FB8980818062808381E090
:1006000090E0DF91CF911F910F910895CF93DF93E9
:10061000EC01888D811104C00DC00FB607FE0DC01E
:10062000EA89FB89808185FDF8CFA889B9898C91F9
:1006300086FFF3CFDF91CF910895808185FFF0CFC2
:10064000E889F989808185FFEBCFCE010E94A20263
:10065000E7CF80E090E0892B21F00E9440028111D9
:1006600001C008950E940000FCCF60E084E00E9479
:10067000BA0020E040E067E080E00E94ED0061E029
:1006800084E00E94BA000895DF92EF92FF920F93E8
:100690001F93CF93DF93CDB7DEB7A1970FB6F89432
:1006A000DEBF0FBECDBF7C01CB01BA01D22E19A295
:1006B00021E02D1520F48E010F5D1F4F0EC00F2E6F
:1006C000FAE0DF2EF02DF7CFE95CD801EE938D0133
:1006D000611571058105910579F02D2D30E050E00F
:1006E00040E00E944805E62F622F732F842F952F3C
:1006F000EA3054F7E05DE9CF1097F9F0FD01019081
:100700000020E9F73197AF014A1B5B0BD701ED9150
:10071000FC910280F381E02DB801C7010995A196F3
:100720000FB6F894DEBF0FBECDBFDF91CF911F9102
:100730000F91FF90EF90DF90089590E080E0EFCF71
:10074000CF92DF92EF92FF920F931F93CF93DF939D
:10075000EC016A017B012115310581F4E881F98101
:100760000190F081E02D642F0995DF91CF911F91C9
:100770000F91FF90EF90DF90CF9008952A303105D0
:10078000C1F4FF2024F02AE00E944403EECF6DE282
:100790000E9495018C0144275527BA014C195D0927
:1007A0006E097F092AE0CE010E944403800F911F49
:1007B000DCCF0E944403D9CF9A01AB01770F660BBF
:1007C000770B0E94A0030895DC01ED91FC9102805B
:1007D000F381E02D42E050E062E171E00995089577
:1007E0000F931F93CF93DF93EC010E94DC038C01E6
:1007F000CE010E94E403800F911FDF91CF911F91E2
:100800000F9108956115710581F0FB0101900020A1
:10081000E9F73197AF01461B570BDC01ED91FC91D5
:100820000280F381E02D0995089590E080E008951D
:100830000F931F93CF93DF93EC010E9402048C016E
:10084000CE010E94E403800F911FDF91CF911F9191
:100850000F91089561E084E00E942D0161E080E045
:100860000E942D0161E087E00E942D0126E040E812
:1008700055E260E070E08FE291E00E944A0265E19B
:1008800071E08FE291E00E94180408950F931F9386
:10089000CF938FE291E00E943302892B21F4CF9114
:1008A0001F910F9108958FE291E00E941102C82FCD
:1008B00080ED8C0F883068F0C83789F710922E01D0
:1008C0000E94350366E271E08FE291E00E94180415
:1008D000E6CF0C2F0C2E000C110B0053110981E0F8
:1008E00090E0A0E0B0E0002E04C0880F991FAA1F7E
:1008F000BB1F0A94D2F720912E01822B80932E01E8
:100900000E94350367E171E08FE291E00E940204EA
:100910004AE050E0B8018FE291E00E94F003CCCFB2
:100920001F920F920FB60F9211242F933F938F9324
:100930009F93AF93BF938091D1019091D201A091E9
:10094000D301B091D4013091D00123E0230F2D3792
:1009500058F50196A11DB11D2093D0018093D101BE
:100960009093D201A093D301B093D4018091CC0194
:100970009091CD01A091CE01B091CF010196A11D22
:10098000B11D8093CC019093CD01A093CE01B09383
:10099000CF01BF91AF919F918F913F912F910F9078
:1009A0000FBE0F901F90189526E8230F0296A11DE9
:1009B000B11DD2CF0E946C010E942A040E944604FD
:1009C0000E942903FBCF6FEF7FEF81E090E00E9450
:1009D000CD0108951F920F920FB60F9211242F93FD
:1009E0003F934F935F936F937F938F939F93AF93B7
:1009F000BF93EF93FF938FE291E00E94A202FF91D9
:100A0000EF91BF91AF919F918F917F916F915F9186
:100A10004F913F912F910F900FBE0F901F901895FF
:100A20001F920F920FB60F9211242F938F939F93C3
:100A3000AF93BF93EF93FF93E0913F01F09140019B
:100A4000808182FD14C0EFE2F1E0A689B7892C9184
:100A5000818D8F5F8F73928D891771F0DF01E18D2A
:100A6000F0E0E15DFE4F258F59968C9305C0E09133
:100A70004501F09146018081FF91EF91BF91AF91C7
:100A80009F918F912F910F900FBE0F901F901895EF
:100A9000A1E21A2EAA1BBB1BFD010DC0AA1FBB1F82
:100AA000EE1FFF1FA217B307E407F50720F0A21BF4
:100AB000B30BE40BF50B661F771F881F991F1A9461
:100AC00069F760957095809590959B01AC01BD018B
:100AD000CF010895EE0FFF1F0590F491E02D0994CA
:040AE000F894FFCFB8
:100AE40000000000C3029D0100020603330211024C
:100AF40025020D0A0041005475726E6564206F6E04
:0E0B0400204C45442000436C6561726564001E
:00000001FF
