:100000000C9434000C9451000C9451000C94510049
:100010000C9451000C9451000C9451000C9451001C
:100020000C9451000C9451000C9451000C9451000C
:100030000C9451000C9451000C9407010C94510045
:100040000C94DF000C9451000C9451000C9451005E
:100050000C9451000C9451000C9451000C945100DC
:100060000C9451000C94510011241FBECFEFD8E026
:10007000DEBFCDBF23E0A8E0B3E001C01D92A231F6
:10008000B207E1F713E0A0E0B1E0EEE4F8E002C06F
:1000900005900D92A830B107D9F70E9483000C9407
:1000A00025040C9400009091C00095FFFCCF809334
:1000B000C60090E080E008951092C50087E6809326
:1000C000C400E0ECF0E080818D7F808388E1809344
:1000D000C10086E08093C20080E091E090930F031E
:1000E00080930E03089584B5836084BD85B58560D3
:1000F00085BDEEE6F0E08081816080838081826052
:100100008083789408950E945C000E94730084B1FB
:100110008C6384B98EE091E00E94450181E691E014
:100120000E9445018EE091E00E94450184EB91E040
:100130000E94450187E092E00E9445018BE192E038
:100140009F938F930E942F018FE787BD8FE492E0EA
:100150000E94450187B51F928F9382E992E09F9399
:100160008F930E942F011F928FEF8F9387EB92E066
:100170009F938F930E942F0180910B038F93809107
:100180000A038F93809109038F93809108038F93C3
:1001900087ED92E09F938F930E942F0110920803A6
:1001A0001092090310920A0310920B038DB79EB7A9
:1001B00040960FB6F8949EBF0FBE8DBFABCF1F9277
:1001C0000F920FB60F9211248F939F93AF93BF930B
:1001D0008091080390910903A0910A03B0910B0349
:1001E0000196A11DB11D8093080390930903A0936C
:1001F0000A03B0930B0385B18C6385B9BF91AF91AE
:100200009F918F910F900FBE0F901F9018951F9286
:100210000F920FB60F9211248F939F93AF93BF93BA
:100220008091080390910903A0910A03B0910B03F8
:100230000196A11DB11D8093080390930903A0931B
:100240000A03B0930B0385B1837C85B9BF91AF914D
:100250009F918F910F900FBE0F901F901895B0E057
:10026000A0E0E5E3F1E00C94FE03AE014B5F5F4FCD
:10027000FA0161917191AF0180910E0390910F038A
:100280000E947001E2E00C941A040F931F93CF9325
:10029000DF93E0910E03F0910F032381EC0110E056
:1002A00000E021FD08C00FEF1FEF14C00995892B56
:1002B00011F00FEF1FEF899160910E0370910F0302
:1002C000DB011896ED91FC918111F0CF8AE0099540
:1002D000892B49F7C801DF91CF911F910F910895A4
:1002E000ABE0B0E0E6E7F1E00C94EE037C013B010B
:1002F0008A01FC0117821682838181FFC8C1CE0169
:1003000001965C01F7019381F30193FD859193FFC1
:1003100081913F01882309F453C1853239F493FD5B
:10032000859193FF81913F01853229F4B70190E0D7
:100330000E946003E7CF912C212C312CFFE1F315B3
:1003400038F08B3211F190F4803209F1833229F1C7
:1003500037FC3CC020ED280F2A3050F536FE20C077
:100360008AE0989E200D1124922E06C08D3291F0C5
:10037000803371F7689430F8F30193FD859193FF12
:1003800081913F018111DACF21C0689431F86894DE
:1003900032F8F2CF689433F8EFCF689434F8ECCFAA
:1003A000EAE02E9E200D1124222E689435F8E4CF29
:1003B0008E3229F436FC04C1689436F8DDCF8C36D1
:1003C00019F4689437F8D8CF8836B1F2982F9F7D0A
:1003D00095549330E0F08336A1F18337C1F1833532
:1003E00009F063C02801F2E04F0E511CF801C080F3
:1003F000D180692D70E036FC02C06FEF7FEFC6013F
:100400000E944A034C01689437F882010AC00C5FCD
:100410001F4FFFE3F98388248394912C6501E894AE
:1004200037F833FE2DC0522C8114910471F55520FC
:1004300009F468CFB70180E290E00E9460035A940B
:10044000F6CFF801808189830E5F1F4FE4CF28012A
:10045000F2E04F0E511CF801C080D180692D70E090
:1004600036FC02C06FEF7FEFC6010E9455034C01BE
:100470008201D5CFB70180E290E00E9460032A9408
:100480002814190409F0B0F7CECFF60137FC859196
:1004900037FE81916F01B70190E00E946003511017
:1004A0005A94F1E08F1A9108BFCF843619F089363B
:1004B00009F077C0F80137FE6BC0608171818281DD
:1004C00093810C5F1F4FF32DFF763F2E97FF09C0DE
:1004D00090958095709561957F4F8F4F9F4F689451
:1004E00037F82AE030E0A5010E949003C82ECA1810
:1004F0008C2C432C36FE0CC0E89440F8C91440F410
:1005000034FE05C032FC03C0F32DFE7E4F2E892C35
:1005100044FE95C0FE01EC0DF11D8081803309F091
:1005200087C0242D297E422E842D8870582E43FCAE
:1005300095C040FE8FC09C2C821418F42C0C922C79
:10054000981844FE91C0B70180E390E00E946003D8
:1005500042FE09C088E790E041FE02C088E590E0D5
:10056000B7010E946003C91408F48AC0CA94D12C50
:100570009FEFC91AD90ACA0CDB1CF60182916F01E0
:10058000B70190E00E946003AC14BD04B1F74FCFF7
:1005900060817181072E000C880B990B0E5F1F4F35
:1005A00092CFD32CE894D4F82AE030E0853739F1A3
:1005B000232D297FD22E8F3601F148F48835A9F0FA
:1005C000F701868197812B96E2E10C940A0480372B
:1005D00049F08837A9F7D4FE02C06894D2F820E128
:1005E00030E00DC06894D4F8F6CF34FE03C0822FFB
:1005F0008660D82E20E132E002C028E030E0F80129
:10060000D7FE0FC060817181828193810C5F1F4F83
:10061000A5010E949003C82ECA183D2CE89437F813
:1006200067CF6081718190E080E00E5F1F4FF0CF57
:1006300042FC02C0839478CF8394839475CF842D39
:10064000867809F471CFF6CFB70180E290E00E947E
:10065000600383948214C0F3512C73CF522C58182A
:10066000821408F46ECFF8CF842D867809F47BCFFE
:100670008BE241FE80E247FC8DE2B70190E071CF52
:10068000B70180E390E00E9460039A946CCF8FEFF3
:100690009FEF99CFFC010590615070400110D8F791
:1006A000809590958E0F9F1F0895FC0161507040BA
:1006B00001900110D8F7809590958E0F9F1F089597
:1006C0000F931F93CF93DF93182F092FEB018B818B
:1006D00081FD09C01FEF0FEF812F902FDF91CF9188
:1006E0001F910F91089582FF14C02E813F818C814C
:1006F0009D81281739073CF4E881F981CF010196E3
:100700009983888310838E819F8101969F838E8336
:10071000E3CFE885F985812F0995892BA1F3DACFFD
:10072000FA01AA27283051F1203181F1E8946F9322
:100730006E7F6E5F7F4F8F4F9F4FAF4FB1E03ED0C8
:10074000B4E03CD0670F781F891F9A1FA11D680F66
:10075000791F8A1F911DA11D6A0F711D811D911D99
:10076000A11D20D009F468943F912AE0269F11240E
:100770003019305D3193DEF6CF010895462F477072
:10078000405D4193B3E00FD0C9F7F6CF462F4F70CD
:10079000405D4A3318F0495D31FD4052419302D02B
:1007A000A9F7EACFB4E0A6959795879577956795D1
:1007B000BA95C9F700976105710508959B01AC01D1
:1007C0000A2E06945795479537952795BA95C9F7F8
:1007D000620F731F841F951FA01D08952F923F92D3
:1007E0004F925F926F927F928F929F92AF92BF9241
:1007F000CF92DF92EF92FF920F931F93CF93DF93ED
:10080000CDB7DEB7CA1BDB0B0FB6F894DEBF0FBE49
:10081000CDBF09942A88398848885F846E847D8496
:100820008C849B84AA84B984C884DF80EE80FD8098
:100830000C811B81AA81B981CE0FD11D0FB6F8940E
:0E084000DEBF0FBECDBFED010895F894FFCFCF
:10084E0000000003000000005300000000002A2AF0
:10085E002A2A2A2A2A2A2A2A2A2A2A2A2A2A2A2AEA
:10086E002A2A2A2A2A2A2A2A2A2A2A2A2A2A2A2ADA
:10087E002A2A2A2A2A2A2A2A2A2A2A2A2A2A2A2ACA
:10088E002A2A2A2A2A2A2A2A2A2A2A2A2A2A2A2ABA
:10089E002A2A2A2A2A2A2A2A2A2A2A2A2A2A2A2AAA
:1008AE00002A2A2A2A2A2A2A2A2A2A2A2A2A2A2AC4
:1008BE002A2A2A2A2A2A2A2A2A2A2A2A2A2A2A2A8A
:1008CE002A2A2A2A205469636B20546F636B2044B2
:1008DE00656D6F202A2A2A2A2A2A2A2A2A2A2A2AB1
:1008EE002A2A2A2A2A2A2A2A2A2A2A2A2A2A2A2A5A
:1008FE002A2A2A0054696D6572203020697320738C
:10090E00657420746F20696E6372656D656E7420F8
:10091E006974732054434E54302072656769737442
:10092E006572206576657279203634207573207570
:10093E007020746F2061206D6178696D756D206F08
:10094E0066203235352E004F6273657276652074DF
:10095E006865204C4544732E2E2E00456E746572CC
:10096E0020746865204F435230412076616C756566
:10097E0020696E203320646967697420666F726D1A
:10098E00617420283030302D323535293A2000540C
:10099E00696D657220302067656E6572617465736E
:1009AE00202A696E20746865206261636B67726FBE
:1009BE00756E642A20636F6E74696E756F75736CD5
:1009CE00792074776F20696E7465727275707473A6
:1009DE003A00092A29207768656E20746865204FD1
:1009EE0052433041202825642920697320726561A5
:1009FE00636865642E0A00092A29207768656E20CF
:100A0E00544F502028256429206973207265616334
:100A1E006865642E0A0A004D65616E7768696C65BB
:100A2E0020776520617265206174206120746F7477
:100A3E00616C206F6620256C6420696E746572721D
:080A4E00757074732E0A0A0092
:00000001FF
