:100000000C9434000C9451000C9451000C94510049
:100010000C9451000C9451000C9451000C940D0759
:100020000C9451000C9451000C9451000C9451000C
:100030000C9451000C9451000C9451000C945100FC
:100040000C9451000C9451000C9451000C945100EC
:100050000C9451000C9451000C9451000C945100DC
:100060000C9451000C94510011241FBECFEFD8E026
:10007000DEBFCDBF21E0ACE4B1E001C01D92A835E8
:10008000B207E1F711E0A0E0B1E0EEE3FBE102C06E
:1000900005900D92AC34B107D9F70E94BA060C94C2
:1000A0009D0D0C9400008130910569F0823091051E
:1000B000B1F0892B09F00895EEE6F0E080818260CE
:1000C000808367BD0895EFE6F0E0808182608083E1
:1000D000862F972F90938900809388000895E0E7FA
:1000E000F0E08081826080836093B300E4CF813050
:1000F000910551F08230910569F0892B09F008953E
:1001000085B5887F85BD0895E1E8F0E08081887F2E
:1001100080830895E1EBF0E08081887F8083EFCFDA
:100120008034910559F16CF481309105D9F0883013
:100130009105F1F0892B99F582E090E00E9477001B
:100140000895811521E09207F9F0811524E09207C6
:1001500009F18038910519F5E1EBF0E080818560C7
:1001600080830895E1EBF0E08081816080830895D1
:10017000E1EBF0E08081826080830895E1EBF0E0C4
:100180008081846080830895E1EBF0E08081866067
:1001900080830895E1EBF0E080818760808308959B
:1001A0008034910559F16CF481309105D9F0883093
:1001B0009105F1F0892B99F581E090E00E9477009C
:1001C0000895811521E09207F9F0811524E0920746
:1001D00009F18038910519F5E1E8F0E0808185604A
:1001E00080830895E1E8F0E0808181608083089554
:1001F000E1E8F0E08081826080830895E1E8F0E04A
:100200008081846080830895E1E8F0E080818660E9
:1002100080830895E1E8F0E080818760808308951D
:100220008034910529F16CF481309105C9F0883052
:100230009105D1F0892B39F590E080E00E9477009C
:100240000895811521E09207B9F0811524E0920705
:10025000B9F080389105B9F485B5856085BD0895FC
:1002600085B5816085BD089585B5826085BD089599
:1002700085B5846085BD089585B5866085BD089582
:1002800085B5876085BD08958830910508F04BC01D
:10029000835B9E4FFC010C94900A5501600166013E
:1002A0006B01700175017F018901E0EBF0E0808155
:1002B0008C7F8083E1EBF0E08081877F80830895ED
:1002C000E0EBF0E08081816080830895E0EBF0E076
:1002D000808182608083E0EBF0E0808183608083B6
:1002E000E1EBF0E0808188608083E0EBF0E08081EA
:1002F00081608083E1EBF0E0808188608083E0EBC7
:10030000F0E0808182608083E1EBF0E080818860B2
:100310008083E0EBF0E0808183608083E1EBF0E0BC
:1003200080818860808308958830910508F04BC0F3
:1003300083569E4FFC010C94900AA501B001B601B2
:10034000BB01C001C501CF01D901E0E8F0E0808127
:100350008C7F8083E1E8F0E08081877F808308954F
:10036000E0E8F0E08081816080830895E0E8F0E0DB
:10037000808182608083E0E8F0E080818360808318
:10038000E1E8F0E0808188608083E0E8F0E080814F
:1003900081608083E1E8F0E0808188608083E0E82C
:1003A000F0E0808182608083E1E8F0E08081886015
:1003B0008083E0E8F0E0808183608083E1E8F0E022
:1003C00080818860808308958830910598F58451F4
:1003D0009E4FFC010C94900AF401FB01FF01020204
:1003E000050208020E02140284B58C7F84BD85B517
:1003F000877F85BD089584B5816084BD089584B5E7
:10040000826084BD84B5836084BD85B5886085BD08
:1004100084B5816084BD85B5886085BD84B5826002
:1004200084BD85B5886085BD84B5836084BD85B590
:10043000886085BD0895CF93DF93EA0181309105EF
:1004400081F082309105A1F0892B21F07894DF9121
:10045000CF910895CB010E94E401CE010E941001CA
:10046000F5CFCB010E949401CE010E94D000EECFC7
:10047000CB010E944401CE010E949000E7CFEAE741
:10048000F0E080818064808380917A0086FDFCCFDB
:100490000895ECE7F0E0808180648083EAE7F0E093
:1004A000808187608083808180688083089590E068
:1004B00018C047E050E0491B5109282F30E002C026
:1004C000359527954A95E2F721702130C1F025B185
:1004D0002E7F25B92BB120682BB92BB12F772BB9E3
:1004E0009F5F983080F46111E4CF282F30E0092E0F
:1004F00002C0359527950A94E2F72170E6CF25B121
:10050000216025B9E7CF0895CF93C82F8BB18F7E97
:100510008BB9E62FF0E0E25FFE4F61E080810E9440
:100520005702EC2FF0E0E85EFE4F61E080810E9410
:1005300057028BB180618BB9CF9108958AB18061E8
:100540008AB98AB180688AB984B1816084B9089512
:100550004F925F926F927F928F929F92AF92BF92D3
:10056000CF92DF92EF92FF92CF93DF93CDB7DEB7BA
:1005700066970FB6F894DEBF0FBECDBF49015A0192
:100580009B01AC0160E074E284E799E40E94660894
:100590000E94D8086B017C01A8EEB3E0A50194018C
:1005A0000E94960A4B015C01412C512C3201898139
:1005B0008D8B8D818E8BD3C020E030E040E251E402
:1005C00069897A898B899C890E94BE090E94D80812
:1005D00006C080E991E00197F1F76150710961155A
:1005E0007105B9F723C081E090E035C120E030E02B
:1005F0004FE753E469817A818B819C810E94B9091C
:10060000181654F469857A858B859C850E94D808D4
:10061000CB010197F1F70EC069817A818B819C81B2
:100620000E94D8086E8B02C081E08E8B8E898A95DD
:10063000F1F78E8B8BB188608BB920E030E040E819
:100640005FE369817A818B819C810E9461088823A4
:100650000CF47BC020E03FEF4FE757E469857A85D3
:100660008B859C850E94B90918160CF050C020E0BB
:1006700030E04AE754E46D817E818F8198850E9445
:1006800066086D837E838F83988720E030E04AE799
:1006900055E40E94BE0969837A838B839C8320E0A2
:1006A00030E040E85FE30E94610888236CF120E0BD
:1006B0003FEF4FE757E469817A818B819C810E94EB
:1006C000B909181654F069817A818B819C810E9446
:1006D000D808CB010197F1F73AC020E030E040E2C2
:1006E00051E46D817E818F8198850E94BE090E94B0
:1006F000D80806C080E991E00197F1F761507109CF
:1007000061157105B9F723C081E090E0E3CF20E0E7
:1007100030E04FE753E469817A818B819C810E94AC
:10072000B909181654F469857A858B859C850E94D1
:10073000D808CB010197F1F70EC069817A818B81CE
:100740009C810E94D8086D8B02C081E08D8B8D89C1
:100750008A95F1F78D8B4C0C5D1C6E1C7F1C481428
:1007600059046A047B0408F079C08BB1877F8BB988
:10077000C701B60196958795779567950E940709F9
:100780006D837E838F8398872BEA3AEA4AEA50E4A6
:100790000E94BE0969837A838B839C8320E030E0CA
:1007A00040E850E46D817E818F8198850E94BE096A
:1007B00069877A878B879C8720E030E040E85FE399
:1007C00069817A818B819C810E94610888230CF465
:1007D0002BCF20E03FEF4FE757E469857A858B8583
:1007E0009C850E94B90918160CF000CF20E030E07B
:1007F0004AE754E46D817E818F8198850E94660866
:10080000698B7A8B8B8B9C8B20E030E04AE755E438
:100810000E94BE096D877E878F87988B20E030E02D
:1008200040E85FE30E94610888230CF4DCCE20E0FE
:100830003FEF4FE757E46D857E858F8598890E944D
:10084000B90918160CF4B8CE6D857E858F85988908
:100850000E94D808CB010197F1F7E8CE66960FB653
:10086000F894DEBF0FBECDBFDF91CF91FF90EF9028
:10087000DF90CF90BF90AF909F908F907F906F90C0
:100880005F904F9008958AB188608AB98BB1886073
:100890008BB908959091C00095FFFCCF8093C6005E
:1008A00090E080E008951092C50087E68093C40030
:1008B000E0ECF0E080818D7F808388E18093C1004F
:1008C00086E08093C20080E091E090935501809390
:1008D000540108959C01215031092430310568F4F8
:1008E00025B1019641E050E0BA0102C0660F771FC2
:1008F0008A95E2F7CB01822B85B90895CF93DF93D8
:10090000C1E0D0E004C0CE010E946A042196C53047
:10091000D105CCF3DF91CF9108959C01215031098D
:100920002530310568F445B12E5F3F4F81E090E0FE
:1009300002C0880F991F2A95E2F78095842385B914
:1009400008959C01215031092430310568F424B107
:10095000019641E050E0BA0102C0660F771F8A9508
:10096000E2F7CB01822B84B90895CF93DF93C1E0E6
:10097000D0E004C0CE010E94A1042196C530D1056B
:10098000CCF30E947E04DF91CF9108954F925F9245
:100990006F927F92AF92BF92CF92DF92EF92FF92CF
:1009A0000F931F93CF93DF93CDB7DEB729013A01A1
:1009B0009B01AC01241935094609570989899A898F
:1009C000AB89BC89BC01CD016A197B098C099D09E1
:1009D0000E942B0AA80197012419350946095709D5
:1009E0000E94710ACA01B9016A0D7B1D8C1D9D1DF3
:1009F000DF91CF911F910F91FF90EF90DF90CF90FB
:100A0000BF90AF907F906F905F904F900895AF929E
:100A1000BF92DF92EF92FF920F931F93CF93DF93DA
:100A2000803127E2920708F051C05B01EC01F12C04
:100A3000E12C43C0CE0168EE73E00E943B0A80E0E7
:100A40000E9484028FE19EE40197F1F700C000004C
:100A5000CE0164E670E00E943B0ACB010AE010E0A0
:100A6000B8010E943B0A682F81E00E9484028FE156
:100A70009EE40197F1F700C00000CE01B8010E948A
:100A80003B0AD82ECB01B8010E943B0A682F82E0B6
:100A90000E9484028FE19EE40197F1F700C00000FC
:100AA0006D2D83E00E9484028FE19EE40197F1F7AF
:100AB00000C000009FEFE91AF90AC50164E170E087
:100AC0000E943B0AE616F7060CF4B4CFDF91CF91F3
:100AD0001F910F91FF90EF90DF90BF90AF9008951E
:100AE0009C012150310923303105F8F426B130E062
:100AF000082E02C0359527950A94E2F7A9014170A6
:100B0000552720FD15C0EFE9FFE03197F1F700C050
:100B1000000026B130E002C0359527958A95E2F7AE
:100B200020FD08C041E050E005C050E040E002C0B8
:100B300050E040E0CA010895CF93DF93C82FD62F2D
:100B40008BB18F7E8BB9862F660F990B0E94C80AD6
:100B5000892B09F0D052E0EEED0FEB3508F062C0C2
:100B60000E2E000CFF0BE954FA4F0C94900A5D0610
:100B700012061206120612061206120612061206B5
:100B800012061206120612061206120612061206A5
:100B90001206120612061206120612061206120695
:100BA0001206120612061206120612061206120685
:100BB00012066006150618061B061E0621062406E8
:100BC00027062A062D0630063306360639063C0669
:100BD0003F064206450648064B064E065106540699
:100BE00057065A06120612061206120612061206B8
:100BF00012066006150618061B061E0621062406A8
:100C000027062A062D0630063306360639063C0628
:100C10003F064206450648064B064E065106540658
:100C200057065A06F0E0E0E04DC0E2E0F0E04AC0CE
:100C3000E3E0F0E047C0E4E0F0E044C0E5E0F0E0ED
:100C400041C0E6E0F0E03EC0E7E0F0E03BC0E8E0B5
:100C5000F0E038C0E9E0F0E035C0EAE0F0E032C0B2
:100C6000EBE0F0E02FC0ECE0F0E02CC0EDE0F0E0D5
:100C700029C0EEE0F0E026C0EFE0F0E023C0E0E1C4
:100C8000F0E020C0E1E1F0E01DC0E2E1F0E01AC0D8
:100C9000E3E1F0E017C0E4E1F0E014C0E5E1F0E0EA
:100CA00011C0E6E1F0E00EC0E7E1F0E00BC0E8E1E2
:100CB000F0E008C0E9E1F0E005C0EAE1F0E002C0E0
:100CC000E1E0F0E0E45EFE4F61E080810E945702C7
:100CD000EC2FF0E0E85EFE4F61E080810E94570259
:100CE0008BB180618BB9DF91CF910895EF92FF9224
:100CF0000F931F93CF93DF93EC017B0110E000E093
:100D00002AC0688180E00E949C058FE19EE40197E3
:100D1000F1F700C00000698181E00E949C058FE12D
:100D20009EE40197F1F700C000006A8182E00E9412
:100D30009C058FE19EE40197F1F700C000006B81F4
:100D400083E00E949C058FE19EE40197F1F700C0CB
:100D500000000F5F1F4FC70164E170E00E943B0A73
:100D60000617170774F2DF91CF911F910F91FF9033
:100D7000EF9008950E9449020E949E020E9453042F
:100D80000E9443040E94B5040E943F0260917800D3
:100D90007091790090E080E01F921F921F9220EFE7
:100DA0002F930F2EFAE0AF2EB12CC12CD12CF02DA9
:100DB000EE24EA9413E0F12E00E010E020E030E0B1
:100DC000A9010E94C6040F900F900F900F90CB01C5
:100DD000709351016093500164E670E00E94070532
:100DE00081E090E00E947005019771F640E051E0CB
:100DF00062E070E082E090E00E941B0269EF70E028
:100E000082E090E00E94530064E670E0809150011F
:100E1000909151010E940705F7CF1F920F920FB6D4
:100E20000F9211242F933F934F935F936F937F9370
:100E30008F939F93AF93BF93EF93FF9360914C0178
:100E400070914D0180914E0190914F016F5F7F4FE6
:100E50008F4F9F4F60934C0170934D0180934E01D3
:100E600090934F012AEF30E040E050E00E944F0A9B
:100E7000672B682B692BB9F5809150019091510136
:100E8000863091050CF040C0059709F45DC0809153
:100E9000500190915101049709F471C08091500163
:100EA00090915101039709F485C080915001909170
:100EB0005101029709F49DC0809150019091510118
:100EC000019709F4B5C08091500190915101892B8F
:100ED00009F4CDC0809150019091510101979093F8
:100EE000510180935001FF91EF91BF91AF919F917C
:100EF0008F917F916F915F914F913F912F910F90C3
:100F00000FBE0F901F9018950197909351018093F9
:100F1000500121E030E040E050E060E070E088EC1B
:100F200092E40E94A802809151018F938091500118
:100F30008F9387E391E09F938F930E94CF0A0F9046
:100F40000F900F900F90CFCF2AE030E040E050E0BC
:100F500060E070E088EC92E40E94A8028091510168
:100F60008F93809150018F9387E391E09F938F93AC
:100F70000E94CF0A0F900F900F900F9088CF2AE019
:100F800030E040E050E060E070E08AEF93E40E94DF
:100F9000A802809151018F93809150018F9387E334
:100FA00091E09F938F930E94CF0A0F900F900F9024
:100FB0000F9074CF2AE030E040E050E060E070E055
:100FC0008AE794E40E94A80281E090E00E948D04E8
:100FD000809151018F93809150018F9387E391E02D
:100FE0009F938F930E94CF0A0F900F900F900F90B6
:100FF0005CCF2AE030E040E050E060E070E08AEF53
:1010000094E40E94A80282E090E00E948D04809106
:1010100051018F93809150018F9387E391E09F93CB
:101020008F930E94CF0A0F900F900F900F9044CF94
:101030002AE030E040E050E060E070E08AE795E4CC
:101040000E94A80283E090E00E948D0480915101EB
:101050008F93809150018F9387E391E09F938F93BB
:101060000E94CF0A0F900F900F900F902CCF21E08D
:1010700030E040E050E060E070E088E492E40E94FC
:10108000A80284E090E00E948D04809151018F932A
:10109000809150018F9387E391E09F938F930E94FB
:1010A000CF0AF89482E090E00E94770060E27EE44C
:1010B00086E491E00E9476060F900F900F900F90BB
:1010C00009CF0E94440908F481E008950E947A083B
:1010D0000C947F090E94780958F00E94710940F031
:1010E00029F45F3F29F00C94680951110C94B3095D
:1010F0000C946E090E94900968F39923B1F355236B
:1011000091F3951B550BBB27AA276217730784071A
:1011100038F09F5F5F4F220F331F441FAA1FA9F3B0
:1011200035D00E2E3AF0E0E832D091505040E6959E
:10113000001CCAF72BD0FE2F29D0660F771F881FFF
:10114000BB1F261737074807AB07B0E809F0BB0BF2
:10115000802DBF01FF2793585F4F3AF09E3F510506
:1011600078F00C9468090C94B3095F3FE4F3983E5F
:10117000D4F3869577956795B795F7959F5FC9F7EF
:10118000880F911D9695879597F90895E1E0660F70
:10119000771F881FBB1F621773078407BA0720F0E9
:1011A000621B730B840BBA0BEE1F88F7E095089552
:1011B0000E94980988F09F5798F0B92F9927B75146
:1011C000B0F0E1F0660F771F881F991F1AF0BA95EB
:1011D000C9F714C0B13091F00E94B209B1E008958E
:1011E0000C94B209672F782F8827B85F39F0B93F80
:1011F000CCF3869577956795B395D9F73EF490959E
:101200008095709561957F4F8F4F9F4F0895E8941B
:1012100009C097FB3EF490958095709561957F4F3E
:101220008F4F9F4F9923A9F0F92F96E9BB279395EC
:10123000F695879577956795B795F111F8CFFAF4FC
:10124000BB0F11F460FF1BC06F5F7F4F8F4F9F4F2D
:1012500016C0882311F096E911C0772321F09EE88B
:10126000872F762F05C0662371F096E8862F70E0F1
:1012700060E02AF09A95660F771F881FDAF7880FCB
:101280009695879597F90895990F0008550FAA0B21
:10129000E0E8FEEF16161706E807F907C0F0121689
:1012A0001306E407F50798F0621B730B840B950B8C
:1012B00039F40A2661F0232B242B252B21F40895E1
:1012C0000A2609F4A140A6958FEF811D811D08957E
:1012D00097F99F6780E870E060E008959FEF80ECE9
:1012E000089500240A94161617061806090608958C
:1012F00000240A9412161306140605060895092EF2
:101300000394000C11F4882352F0BB0F40F4BF2B60
:1013100011F460FF04C06F5F7F4F8F4F9F4F0895A0
:1013200057FD9058440F551F59F05F3F71F0479596
:10133000880F97FB991F61F09F3F79F0879508957B
:10134000121613061406551FF2CF4695F1DF08C09A
:10135000161617061806991FF1CF869571056105B7
:1013600008940895E894BB2766277727CB0197F95F
:1013700008950E94440908F48FEF08950E94D1094E
:101380000C947F090E94710938F00E94780920F0BE
:10139000952311F00C9468090C946E0911240C9497
:1013A000B3090E94900970F3959FC1F3950F50E027
:1013B000551F629FF001729FBB27F00DB11D639F07
:1013C000AA27F00DB11DAA1F649F6627B00DA11DAD
:1013D000661F829F2227B00DA11D621F739FB00D53
:1013E000A11D621F839FA00D611D221F749F3327C3
:1013F000A00D611D231F849F600D211D822F762F5C
:101400006A2F11249F5750409AF0F1F088234AF038
:10141000EE0FFF1FBB1F661F771F881F91505040A4
:10142000A9F79E3F510580F00C9468090C94B3090C
:101430005F3FE4F3983ED4F3869577956795B7952B
:10144000F795E7959F5FC1F7FE2B880F911D969545
:10145000879597F90895DB018F939F930E94960AD1
:10146000BF91AF91A29F800D911DA39F900DB29F40
:10147000900D1124089597FB072E16F4009407D0C1
:1014800077FD09D00E94A10A07FC05D03EF4909593
:1014900081959F4F0895709561957F4F0895A1E2C2
:1014A0001A2EAA1BBB1BFD010DC0AA1FBB1FEE1FDE
:1014B000FF1FA217B307E407F50720F0A21BB30B29
:1014C000E40BF50B661F771F881F991F1A9469F7A5
:1014D00060957095809590959B01AC01BD01CF0101
:1014E0000895052E97FB1EF400940E94880A57FD6C
:1014F00007D00E944F0A07FC03D04EF40C94880AD0
:1015000050954095309521953F4F4F4F5F4F08952F
:1015100090958095709561957F4F8F4F9F4F08955F
:10152000EE0FFF1F0590F491E02D09940E94B50A7B
:10153000A59F900DB49F900DA49F800D911D112427
:101540000895AA1BBB1B51E107C0AA1FBB1FA6170A
:10155000B70710F0A61BB70B881F991F5A95A9F75C
:1015600080959095BC01CD010895A29FB001B39FD5
:10157000C001A39F700D811D1124911DB29F700D9C
:10158000811D1124911D089585FD0C94BF0C80626E
:1015900091110C94BF0C81568A51D8F70895B0E090
:1015A000A0E0E5EDFAE00C94760DAE014B5F5F4FE5
:1015B000FA0161917191AF018091540190915501AF
:1015C0000E94E50AE2E00C94920DABE0B0E0EBEE95
:1015D000FAE00C94660D7C013B018A01FC01178244
:1015E0001682838181FFC8C1CE0101965C01F7019B
:1015F0009381F30193FD859193FF81913F018823AE
:1016000009F453C1853239F493FD859193FF81919B
:101610003F01853229F4B70190E00E94D80CE7CF52
:10162000912C212C312CFFE1F31538F08B3211F184
:1016300090F4803209F1833229F137FC3CC020ED6F
:10164000280F2A3050F536FE20C08AE0989E200DE3
:101650001124922E06C08D3291F0803371F7689478
:1016600030F8F30193FD859193FF81913F01811142
:10167000DACF21C0689431F8689432F8F2CF6894D8
:1016800033F8EFCF689434F8ECCFEAE02E9E200DCB
:101690001124222E689435F8E4CF8E3229F436FCDA
:1016A00004C1689436F8DDCF8C3619F4689437F8A5
:1016B000D8CF8836B1F2982F9F7D95549330E0F0C3
:1016C0008336A1F18337C1F1833509F063C0280166
:1016D000F2E04F0E511CF801C080D180692D70E0FE
:1016E00036FC02C06FEF7FEFC6010E94C20C4C01B6
:1016F000689437F882010AC00C5F1F4FFFE3F9833B
:1017000088248394912C6501E89437F833FE2DC02A
:10171000522C8114910471F5552009F468CFB7015A
:1017200080E290E00E94D80C5A94F6CFF8018081B4
:1017300089830E5F1F4FE4CF2801F2E04F0E511C4A
:10174000F801C080D180692D70E036FC02C06FEFD7
:101750007FEFC6010E94CD0C4C018201D5CFB701AD
:1017600080E290E00E94D80C2A942814190409F011
:10177000B0F7CECFF60137FC859137FE81916F012E
:10178000B70190E00E94D80C51105A94F1E08F1AE2
:101790009108BFCF843619F0893609F077C0F80177
:1017A00037FE6BC060817181828193810C5F1F4F16
:1017B000F32DFF763F2E97FF09C090958095709589
:1017C00061957F4F8F4F9F4F689437F82AE030E044
:1017D000A5010E94080DC82ECA188C2C432C36FE79
:1017E0000CC0E89440F8C91440F434FE05C032FC43
:1017F00003C0F32DFE7E4F2E892C44FE95C0FE01C2
:10180000EC0DF11D8081803309F087C0242D297EE5
:10181000422E842D8870582E43FC95C040FE8FC008
:101820009C2C821418F42C0C922C981844FE91C015
:10183000B70180E390E00E94D80C42FE09C088E71F
:1018400090E041FE02C088E590E0B7010E94D80C0C
:10185000C91408F48AC0CA94D12C9FEFC91AD90AB6
:10186000CA0CDB1CF60182916F01B70190E00E9467
:10187000D80CAC14BD04B1F74FCF60817181072E35
:10188000000C880B990B0E5F1F4F92CFD32CE8945E
:10189000D4F82AE030E0853739F1232D297FD22E84
:1018A0008F3601F148F48835A9F0F70186819781D8
:1018B0002B96E2E10C94820D803749F08837A9F726
:1018C000D4FE02C06894D2F820E130E00DC06894E4
:1018D000D4F8F6CF34FE03C0822F8660D82E20E1E4
:1018E00032E002C028E030E0F801D7FE0FC060818E
:1018F0007181828193810C5F1F4FA5010E94080DA9
:10190000C82ECA183D2CE89437F867CF60817181E2
:1019100090E080E00E5F1F4FF0CF42FC02C0839446
:1019200078CF8394839475CF842D867809F471CF12
:10193000F6CFB70180E290E00E94D80C8394821425
:10194000C0F3512C73CF522C5818821408F46ECF68
:10195000F8CF842D867809F47BCF8BE241FE80E2BC
:1019600047FC8DE2B70190E071CFB70180E390E0D2
:101970000E94D80C9A946CCF8FEF9FEF99CF992744
:1019800088270895FC010590615070400110D8F738
:10199000809590958E0F9F1F0895FC0161507040B7
:1019A00001900110D8F7809590958E0F9F1F089594
:1019B0000F931F93CF93DF93182F092FEB018B8188
:1019C00081FD09C01FEF0FEF812F902FDF91CF9185
:1019D0001F910F91089582FF14C02E813F818C8149
:1019E0009D81281739073CF4E881F981CF010196E0
:1019F0009983888310838E819F8101969F838E8334
:101A0000E3CFE885F985812F0995892BA1F3DACFFA
:101A1000FA01AA27283051F1203181F1E8946F931F
:101A20006E7F6E5F7F4F8F4F9F4FAF4FB1E03ED0C5
:101A3000B4E03CD0670F781F891F9A1FA11D680F63
:101A4000791F8A1F911DA11D6A0F711D811D911D96
:101A5000A11D20D009F468943F912AE0269F11240B
:101A60003019305D3193DEF6CF010895462F47706F
:101A7000405D4193B3E00FD0C9F7F6CF462F4F70CA
:101A8000405D4A3318F0495D31FD4052419302D028
:101A9000A9F7EACFB4E0A6959795879577956795CE
:101AA000BA95C9F700976105710508959B01AC01CE
:101AB0000A2E06945795479537952795BA95C9F7F5
:101AC000620F731F841F951FA01D08952F923F92D0
:101AD0004F925F926F927F928F929F92AF92BF923E
:101AE000CF92DF92EF92FF920F931F93CF93DF93EA
:101AF000CDB7DEB7CA1BDB0B0FB6F894DEBF0FBE47
:101B0000CDBF09942A88398848885F846E847D8493
:101B10008C849B84AA84B984C884DF80EE80FD8095
:101B20000C811B81AA81B981CE0FD11D0FB6F8940B
:0E1B3000DEBF0FBECDBFED010895F894FFCFCC
:101B3E0000000003000000004A0400000000C0F98D
:101B4E00A4B0999282F88090F1F2F4F88883C6A13D
:101B5E00868EC289CFE18AC7EAC8C08C4ACC9287EA
:101B6E00C1C1D58991A4FF5365636F6E6473203D27
:0C1B7E00202564200A004F56455200004C
:00000001FF
